S123001CCE009833C9782133C9000033C90000108EC8808E00002717A6C0A7A0301F26F801
S11E003C108EC8808E026227066FA0301F26FABD32BD5D2F037FCBFE7EF00031
S11F00006720474345203139383280FD0DF850F0B854454C454E47415244800006
S10600577E00988C
S123006E86DF9702860197008E005A58AE85AD84869F970239869F97028E005A58AE85ADD9
S10D008E8486DF970286019700398B
S117005A6F253CBC672D000100010001000100010001000167
S10B0098C9C3C9EBCA13CA3B3A
S12300A0474E4F4C4C004B4F424F4C4400534B454C45544F4E00484F42424954005A4F4DF2
S12300C0424945004F52430046494748544552004D554D4D5900454C460047484F554C0074
S12300E044574152460054524F4C4C00575241495448004F475245004D494E4F5441555290
S1230100004749414E5400535045435445520056414D504952450044454D4F4E00445241F4
S1230120474F4E0000A000A600AD00B600BD00C400C800D000D600DA00E000E600EC00F3C0
S123014000F801010107010F0117011D53545200494E540057495300434F4E0044455800BB
S123016043485200014C015001540158015C016053574F52440041524D4F52005348494C54
S1230180454400454C56454E20434C4F414B00454C56454E20424F4F54530052494E47205D
S12301A04F4620524547454E45524154494F4E0052494E47204F462050524F544543544994
S12301C04F4E005343524F4C4C204F462052455343554500504F54494F4E204F46204845D8
S12301E0414C494E4700504F54494F4E204F4620535452454E4754480001700176017C010D
S123020083018F019B01B001C301D401E64D41474943204D495353494C458000534C4545BA
S123022050800043555245204C4947485420574F554E445380004C494748548000545552B0
S12302404E20554E44454144800050524F542F4556494C8000020D021C02230236023D020C
S12302604A57454280004C4556495441544580004341555345204C4947485420574F554E82
S1230280445380004445544543542054524150538000434841524D8000535452454E47544E
S12302A04880000261026602700284029202994C494748544E494E4720424F4C54800043C8
S12302C055524520534552494F555320574F554E44538000434F4E54494E55414C204C4902
S12302E04748548000494E5649534942494C4954598000484F4C44204D4F4E535445528089
S1230300005048414E5441534D414C20464F52434553800002AF02BF02D402E502F3030166
S1230320504153532057414C4C80004649524542414C4C8000434155534520534552494FDE
S1230340555320574F554E44538000464C45534820544F2053544F4E458000464541528075
S12303600046494E474552204F4620444541544880000320032B0335034B035B03615445D1
S12303804C45504F5254800041535452414C2057414C4B8000504F57455220574F52442064
S12303A04B494C4C80004943452053544F524D800057414C4C204F4620464952458000508C
S12303C04C414755458000037E0388039503A603B103BF54494D452053544F5080005241C0
S12303E049534520444541448000484F4C592053594D424F4C8000574F5244204F46205255
S12304004543414C4C8000524553544F524154494F4E8000505249534D41544943205741B9
S12304204C4C800003D303DE03EA03F704070414025502A30314037203C704245245465533
S123044053450053494C56455200474F4C440047454D53004A4557454C5300043C04430484
S12304604A044F0454574849544500475245454E00434C4541520052454400424C41434BF2
S1230480000465046B04710477047B5245448000475245454E800059454C4C4F5780004227
S12304A04C55458000048B04900497049F39393277E761C696F7C8A86D61102600856F67EC
S12304C06F64160067F6C811E766C5082708C601E767C604E764C604E4662708C601E7672E
S12304E0C603E764C602E4662708C601E767C602E764C601E4662706C601E767E764F6C81F
S12305001BE7682708C601E767C605E764F6C81CE7E42708C601E767C605E7646D67270C0D
S12305206D6826086DE426046D66270ABD3CBC7DC8A81026FF8F6D642704E664E761E661FA
S12305403269396F636F64160069F6C811E765C5082708C601E763C604E764C604E4652728
S123056008C601E763C603E764C602E4652708C601E763C602E764C601E4652706C601E7FB
S123058063E764F6C81BE7622708C601E763C605E764F6C81CE7E42708C601E763C605E79A
S12305A0646D63270E6D62260A6DE426066D651027FF83BD3CBC7AC8A8F6C8A85D1026FF30
S12305C08916FF723279E7617FC811C696F7C8A86D611026008D6F632026F6C81CE7E42F7C
S12305E004C605E7636DE4102D005F6D65260E6D66260A6DE426066D6310260056BD3CBC5A
S12306007DC8A81027004AF6C811E765C5082704C604E763C604E4652704C603E763C60228
S1230620E4652704C602E763C601E4652704C601E763F6C81BE7662F04C608E7636D661090
S12306402CFF97C607E76316FF90C606E76316FF9A6F637FC8116D632704E663E761E66156
S12306603267396F632026F6C81CE7E42F04C605E7636DE4102D00636D64260E6D62260AAA
S12306806DE426066D631026FFC9BD3CBC7AC8A8F6C8A85D1027FFB9F6C811E764C50827AC
S12306A004C604E763C604E4642704C603E763C602E4642704C602E763C601E4642704C681
S12306C001E763F6C81BE7622F04C608E7636D62102CFF93C607E76316FF8CC606E76316DD
S12306E0FF96454E544552204E554D4245523A800028204D41583A202520290028204D496C
S12307004E3A2025202900205E208000346032E8D6AFE817BD6EE0E7E81F64E81F108EC8A5
S1230720B334205FAEE832BD5C373262E6A4C120102703E1F6C8B4C120102703F8F6C8B525
S1230740C120102703E7F6C8B6C120102703D6F6C8B7C120102703C5C680F7C8B8AEE83254
S12307608C270F1022039DCEC8B4C603E7E81E8E0003AFE821ECE832108303E7220D334172
S1230780C602E7E81E8E0002AFE821ECE83210830063220D3341C601E7E81E8E0001AFE8DF
S12307A021ECE83210830009220B33416FE81E8E0000AFE8217FC8FEECE82130CBAFE82327
S12307C0ECE832ED63AEE830AF65E6E81F860C3DEDE450E7E8196FE820160054108EC8AD2C
S12307E034205FAEE834BD5C3734208EC8B3BD5A573264ECE81A10830000102402B6108EBC
S1230800C8AD34205FAEE832BD5C3734208EC8B3BD5A573264C601E7E8207DC81B260AF6F7
S1230820C81C2702C601E7E8207DC811102602CCBD703CBDF1F8BDF1BABDF192BDF2A5C6C6
S12308407FD704AEE8172713C660E7E2AEE818E6E81ABD5875C6CCD70C3261C620E7E28EFF
S123086006E2C6B0BD5875C6CCD70CF6C82BF7C8FFC63FF7C82BAEE83334108E06F1BD6CC6
S12308807EC610E7E28EC8BFC6B8BD5875C6CCD70CAEE83434108E06FCBD6C7E6FE28EC8B9
S12308A0BFC6B8BD5875C6CCD70CC67FF7C82BC6E0E7E230C4C6D0BD5875C6CCD70C326837
S12308C0E6E81EF0C8FE5C86123DCBADE7E4C6D5E7E28E0707E661BD5875C6CCD70CF6C8FA
S12308E0FFF7C82BF6C81BE76332615D2F116DE820260CF6C8FEE7E8252F045AF7C8FE6DAA
S123090062102D01C47DC81C2F166DE8202611F6C8FE1D1F01ECE8213410A3E130CB6C847C
S12309207DC81C102D01BAF6C8FE1D1F01ECE8213410A3E130CBE684C1392304C630E784BD
S1230940F6C8FE1D1F01ECE8213410A3E130CBE684C12F2204C639E784AEE823E684CBD03A
S12309604FEDE81CCC0000EDE81AAEE8328C0009234BECE82130CBE61FCBD04F1F01327804
S1230980CC0000ED64CC000AED66CC0000EDE4AF6230E82EBD76A63268AEE826AFE813EC54
S12309A0E828EDE815ECE81CE3E815EDE81CECE81AE9E814A9E813EDE81AAEE8328C00635B
S12309C02349ECE82130CBE61ECBD04F1F013278CC0000ED64CC0064ED66CC0000EDE4AF13
S12309E06230E82EBD76A63268AEE826AF6FECE828EDE811ECE81CE3E811EDE81CECE81A71
S1230A00E9E810A96FEDE81AAEE8328C03E72344ECE82130CBE61DCBD04F1F023278CC00D1
S1230A2000ED648E03E8AF66EDE410AF6230E82EBD76A63268ECE826ED6BAEE828AF6DEC10
S1230A40E81CE36DEDE81CECE81AE96CA96BEDE81AAEE8328C270F2341ECE82130CBE61C27
S1230A60CBD04F1F023278CC0000ED648E2710AF66EDE410AF6230E82EBD76A63268ECE847
S1230A8026ED67AEE828AF69ECE81CE369EDE81CECE81AE968A967EDE81AAEE81A8C00005B
S1230AA01022FD381026FD4BAEE81CAC631023FD4216FD28108300001026FD59ECE81C10C0
S1230AC0A3651024FD4F16FD356DE8201026FE35F6C8FEE1E81E102CFE2B5CF7C8FE16FE2F
S1230AE0246DE8201026FE3FF6C8FE1D1F01ECE8213410A3E130CB6A8416FE2BAEE81C3224
S1230B00E82A35E0CEC8B3C604E7E81E8E0004AFE82116FC60C630F7C8B316FC17C630F770
S1230B20C8B716FC33C630F7C8B616FC22C630F7C8B516FC11C630F7C8B416FC00594F5549
S1230B402048415645204E4F54204245454E204E4F54494345442E2E2E003C343E20544FE1
S1230B6020415050524F4143483A00594F5520454E434F554E5445522041204C564C202545
S1230B8020250025204C494B455320594F555220424F4459004845204845414C5320594FB0
S1230BA05520544F2046554C4C20535452454E4754480025204D414B455320412051554911
S1230BC0434B204D4F564500594F552048415645204E4F5448494E472048452057414E54AD
S1230BE05300544F20535445414C2100484520535445414C5320594F555220250048452067
S1230C00535445414C5320412025005448452025204C494B455320594F552100484520476E
S1230C204956455320594F55204120252B250046494748542834292C204341535428332974
S1230C402C204556414445283129005741495400455641444500594F5527524520524F4FF8
S1230C6054454420544F205448452053504F54004E4F52544800534F555448005745535408
S1230C80004541535400464947485400594F55204D49535345442E2E2E00594F5520444F95
S1230CA0202520504F494E54532044414D41474500495420444945442E2E2E00594F5520B5
S1230CC04741494E202520455850455249454E434520504F494E5453004954204D495353AE
S1230CE045442E2E2E00495420444F4553202520504F494E54532044414D41474500495457
S1230D0020445241494E532041204C4556454C21212100594F552041524520504152414C0D
S1230D20495A4544212121004954205553455320495427532053574F52442121210049543D
S1230D4020555345532049542753205748495021210054484520445241474F4E20425245A9
S1230D6041544853204649524521212100594F55205041525449414C4C5920444F44474544
S1230D8020495400594F55204255524E20464F52202520504F494E54532044414D41474536
S1230DA0005448452025204953204E4F5420414D5553454400344032E8E9C11E10270321AC
S1230DC0C11F102601857FC969F6C962C1022718C1042714C1072710C109270CC10C2708A7
S1230DE0C1102704C1112605C601F7C9697DC95A2709F6C969C101102705EA7FC9C2F6C95D
S1230E00621DEDE458491F01AE890124AFE3F6C96A8E0B6BBD69CF8EC8BFBD5A71F6C96AE7
S1230E20F7C96B7FC8FEC664BD5E213262C15E10220399F6C962C10810270699C10310279C
S1230E400706F6C962C11310270711F6C8FEE76FC1011027046AC1021027049AC103102731
S1230E6003A3C664BD5E21E7E810F6C947CB1958E1E810102500B5160430C110102701FA31
S1230E80C11110270236C1091027024DC1121027034DC113102703FAC614BD5E21E7E81264
S1230EA0F6C968FBC96AF0C94BF0C94AEBE812E7E813F7C8FEF6C962CBF0C1011023016D0F
S1230EC0F6C8FEC109102F050CC608BD5E21E7E814F6C96A58BD5E21EBE8145CB6C9653D2A
S1230EE01F01FDC9021F108E0CE6BD5BBD8EC8BFBD5A71FCC92DB3C902FDC92D10830000EF
S1230F00102F04DAC64BBD3D31C60ABD5E21F1C96724077DC95610260168C60ABD5E21F1E4
S1230F20C9661024007A8E0D13BD5A71C601F7C9657FC9667FC9677FC968F6C962C10C10A3
S1230F4026FF37C601F7C96716FF4DC664BD5E21C11E102200347DC95B262F7DC95826215B
S1230F60C614BD5E21F7C9627DC9592704C1042FEFC614BD5E215CF1C94C1023068A160136
S1230F8060C664BD5E21C11423D6C603E76BE66B32E81735C07FC9C2BD39635D10260764C6
S1230FA07FC9C28E0C2FBD5A71C696F7C8A87FC8FF1600507DC81C2F05C605F7C8FF7DC800
S1230FC01C102D0060F6C811C5082708C604F7C8FFF6C811C5042708C603F7C8FFF6C811E4
S1230FE0C5022708C602F7C8FFF6C811C5012705C601F7C8FF7DC81126077DC8FF1026002E
S12310003E7AC8A8BD3CBC7DC8A827337DC81B2F05C605F7C8FF7DC81B102CFF97C605F797
S1231020C8FF16FF8FC605F7C8FF16FF987DC9561027FE8CE6E813CBFAF7C8FE16FE81C6F0
S123104001F7C9657FC9667FC9677FC968F6C8FFC1041023006E7FC9C2F6C9621DEDE458C5
S1231060491F01AE890124AFE38E0DA1BD5B508EC8BFBD5A71326216FF26C602F7C9671600
S1231080FE168E0CFEBD5A71FCC9301F985F4646848074C93276C933BEC9323410AAE0EA2B
S12310A0E0FDC93274C93076C931BD52EFBEC92D10270598C64BBD3D3116FE5EC603F7C9BA
S12310C06716FDD44FEDE458491F016E9910CF119911A50F95115C1114C605F7C96616FD5D
S12310E0B7F6C93A5CBD5E21E76CC603BD5E21A66C3D1F015CE76DF7C96ABD5E21E06D502A
S1231100F7C96AB6C9623DBD5E214FC30001FDC96316FCB27FC9C28E0C86BD5A71C614BDFE
S12311205E21E762F6C949FBC92FE76AF6C94354E769E66AEB69E76AE662EB6A4F1F01FDF3
S1231140C9027DC95327053004BFC9028C0009102E02B18E0C8CBD5A7116FDD0C601BD455D
S1231160A0E762F7C8FFC1011027FDC0C1021027FE2EC103102702E6C10410270371C105CF
S1231180102702E0C1061027FE00C602E76BE662C1071027FDF816FDF77FC9C28E0C4BBD2A
S12311A05A7116FDFB7FC9C28E0C50BD5A71C612BD5E215CF7C8FEF1C947102503318E0CA5
S12311C056BD5A71C632BD3D3116FD60C65BBD5E21C11D102200DBC601F7C8FE16FC6CC687
S12311E00ABD5E21C106102302098E0D28BD5A71C604F7C968C603F7C965C64BBD3D317FBA
S1231200C9C216FC93C607BD5E21F7C8FE1D1F01E689C949E762F6C96AE7E815E662E1E8AF
S1231220151024FC3DE6E815E062E762BD5E21E762F6C8FE1D1F01E662EB89C9495CE789A2
S1231240C949F6C9621DEDE458491F01AE890124AFE38E0C0BBD5B508EC8BFBD5A71F6C852
S1231260FE1DED6258491F01AE8901F9AFE3AE64E689C9498E0C1CBD6A6A8EC8BFBD5A7105
S12312807FC8FEC64BBD3D31E6E813E76F326416FCFCC60ABD5E21C10310230325C605F701
S12312A0C968C602F7C96516FBEEC64BBD3D3116FCEEC13B102202B8C602F7C8FE16FB8BC8
S12312C0F6C9621DEDE458491F01AE890124AFE38E0B83BD5B508EC8BFBD5A718E0B95BD40
S12312E05A71C64BBD3D31BEC92BBFC92DC603E76D326216FC98F6C9621DEDE458491F0151
S1231300AE890124AFE38E0BB3BD5B508EC8BFBD5A71C64BBD3D31C6FFF7C8FE32627DC9F2
S123132049102603D3C6017DC94A102603187DC94B102603C7C6037DC94C10260308C604B5
S12313407DC94D102602FFC6057DC94E102602F6C6067DC94F102602EDC6077DC950102613
S123136002E4C6087DC951102602DB7DC952102602D2F6C8FEC1FF10270331C6FFF7C8FE00
S1231380C60ABD5E21F7C8FE1D1F016D89C9492605C6FFF7C8FEF6C8FEC1FF27E3C1061031
S12313A02F01D51D58491F01AE8901F9AFE38E0BFDBD5B508EC8BFBD5A71F6C8FE1D1F01EF
S12313C06A89C94932627FC8FEC64BBD3D31C603E76B16FBB98E0CD9BD5A7116FBC2C60274
S12313E0E76B16FBA9C664BD5E21C1131023FB7016FA088E0D3EBD5A71C602F7C968F7C9DC
S12314006516FDF6C608BD5E214FFDC902F6C92F58BD5E21E7E811FEC9023041F6C9493A5B
S1231420E6E8114FEDE4308BBFC9027DC95327053005BFC902F6C9038E0C9ABD5BBD8EC8BF
S1231440BFBD5A71F6C9034F1F03BEC9631F103440A3E1FDC96310830000102CFCFB8E0C74
S1231460B1BD5A71C64BBD3D317FC9C2F6C96A860A3DED67F6C9625CE7E4E668A6E43DED55
S1231480E44F1F03FDC902ED65CC0000ED63FCC932E365FDC932FCC930E964A963FDC93042
S12314A034408E0CBCBD5E668EC8BFBD5A71BD52EFC64BBD3D31C664BD5E21E764F7C8FE98
S12314C03262C604E76BE662C132102EFAC0C603E76B16FAB9C664BD5E21E76EF6C9485827
S12314E058E16E1024F964C601F7C8FE16F95CC604BD5E21F7C8FEC10110270174102F0051
S12315009DC1021027014C8EC880C103102701198EC880E60BE7E816C603E4E816C10310CD
S123152027016DC601F7C8FC8E0C70BD5A717AC939F6C96AE7E2BEC963F6C962BD3D73C652
S123154001E76C326116FA46C614BD5E21F1C9481023F8EEC602F7C8FE16F8EFC61EBD5E98
S123156021F1C9481024F8E3C603F7C8FE16F8DBC603F7C8FE16F8D31D58491F01AE890149
S1231580F9AFE38E0BECBD5B508EC8BFBD5A71F6C8FE1D1F016F89C949326216FE285D10F2
S12315A026FF6D8EC880F6C88BC403C1031027012AC601F7C8FC8E0C70BD5A717AC93916E3
S12315C0FF6F8E0D52BD5A71C601F7C8A5C64BBD3D317FC8A57FC9C2C614BD5E21B6C96AC8
S12315E03D5C4FFDC902C614BD5E21F1C946102500D2BEC902AFE38E0D84BD5E668EC8BF4A
S1231600BD5A71326216F8EB7FC9C28E0B3DBD5A718E0B5ABD5A71C601BD04AFC10410279B
S1231620F95CC603E76B16F965E60DC40CC10C1027FEE0C603F7C8FC8E0C81BD5A717CC9B1
S12316403816FEEDC609F7C8FE16FD26C602E76B16F93B8EC880E60BC40CC10C1027FFC9C1
S1231660C604F7C8FC8E0C7CBD5A717AC93816FEC08EC880E68813C403C10310270059C6BC
S123168002F7C8FC8E0C76BD5A717CC93916FEA1E68813C403C10310270043C602F7C8FCB5
S12316A08E0C76BD5A717CC93916FE858E0BC8BD5A718E0BE2BD5A71C64BBD3D31C603E79F
S12316C06B16F8CAFCC9024756C30001FDC9028E0D6DBD5A7116FF1A16FF7B16FF96C60C07
S12316E0E4E816C10C271AC604F7C8FC8E0C7CBD5A717AC93816FE395F16FF4AE66F16FFE3
S12317004516FABAC601E76B16F8834E4F00F6C9BC26077DC9BD1027003A7DC81B26317D1F
S1231720C81C262C7FC9C25D102F0036F6C88DC40CC10C26077DC95A102700517CC938C613
S123174003F7C8FC8E0C81BD5A717FC9BC7FC9BDF6C8FC39F6C81BF7C9BCF6C81CF7C9BD7C
S12317605F395D2631F6C9BD102F004BF6C88BC403C10326077DC95A1027005F7AC939C69A
S123178001F7C8FC8E0C70BD5A7116FFBD8E170BBD5A7116FFB4F6C88BC40CC10C26077D94
S12317A0C95A1027003E7AC938C604F7C8FC8E0C7CBD5A7116FF935D1027FF8EF6C893C411
S12317C003C10326057DC95A27237CC939C602F7C8FC8E0C76BD5A7116FF6F8E170BBD5A45
S12317E07116FF668E170BBD5A7116FF5D8E170BBD5A7116FF54594F552053454520534FF2
S12318004D452025203C343E20544F205049434B20555000594F5520444554454354205406
S1231820524150532100594F55204C4541564520495400534E4152462049540049542753B8
S123184020545241505045442100594F5520535546464552202520504F494E545320444164
S12318604D414745004954275320574F525448202520474F4C4400594F5520484156452093
S1231880464F554E4420412054524541535552452043484553542121003C343E20544F2072
S12318A04F50454E2049543A200049474E4F5245204954004F50454E204954004348455348
S12318C054204558504C4F444553212100494E534944452C205448455245204953204F4EF1
S12318E04C5920434F42574542532E2E2E00594F552053454520412025202B25003C343ED2
S123190020544F205049434B2049542055503A004C45415645204954004954204953204317
S12319205552534544212100594F552053554646455220252044414D41474520504F494E9C
S12319405453004954275320594F5552532100346032E8D7E76B7FC9C25D1027016DC60534
S12319606D6B260532E82935E0C664BD5E216FE812C10E10230292C664BD5E21C11E10222C
S1231980015BC664BD5E21C131102303736FE8137FC9C2C60ABD5E21E7E820F6C96B5C549D
S12319A054BD5E21E7E811F6C96B5C5454BD5E21EBE8115CE7E811E6E8204FEDE458491F5B
S12319C001AE8901F9AFE3E6E8138E18EEBD6A6A8EC8BFBD5A718E18FDBD5A71C696F7C856
S12319E0A86FE81C6FE81A326216007BF6C811E7E81BC508270AC601E7E81AC604E7E8181A
S1231A00C604E4E81B270AC601E7E81AC603E7E818C602E4E81B270AC601E7E81AC602E741
S1231A20E818C601E4E81B2708C601E7E81AE7E818F6C81BE7E819270AC601E7E81AC605C1
S1231A40E7E818F6C81CE762270AC601E7E81AC605E7E8186DE81A270E6DE81926096D62D5
S1231A6026056DE81B270EBD3CBC7AC8A8F6C8A85D1026FF776DE81810270247E6E818C1F0
S1231A80041026023E6DE81227076DE820102603D88E1943BD5A71E6E8204F1F0330C9C91A
S1231AA0496C84E6E820C1062205E6E811E784C64BBD3D31E6E813C1011026023EC664BD87
S1231AC05E21C1321023023316FEC5C632BD5E21C1281023FE88C601E76B16FE81C605BD43
S1231AE05E21E7E810F7C8F54FEDE458491F01AE89045BAFE38E17F6BD5B508EC8BFBD5A98
S1231B007132627DC95427076DE81210260347C696F7C8A86FE8166FE81416007BF6C81112
S1231B20E7E817C508270AC601E7E816C604E7E814C604E4E817270AC601E7E816C603E72A
S1231B40E814C602E4E817270AC601E7E816C602E7E814C601E4E8172708C601E7E816E7E6
S1231B60E814F6C81BE7E815270AC601E7E816C605E7E814F6C81CE762270AC601E7E8161D
S1231B80C605E7E8146DE816270E6DE81526096D6226056DE817270EBD3CBC7AC8A8F6C862
S1231BA0A85D1026FF776DE81410270134E6E814C1041026012B7FC9C28E1833BD5A716DBA
S1231BC0E8121027004BF6C96B58FBC96BBD5E215CF7C8FD8E183CBD5A71F6C8FD8E184A6B
S1231BE0BD5BBD8EC8BFBD5A71F6C8FD4F1F01FCC92D3410A3E1FDC92D108300002E12C6FF
S1231C004BBD3D31C60216FD5BC601E7E81216FD66C6C8BD5E214F1F02CC0000FDC9041013
S1231C20BFC906E6E8104F1F01F6C96B4F1F033278CC0000ED64EF66EDE4AF6230E82DBD2A
S1231C4076A6CC0000ED6410AF66AEE82DAFE4EEE82FEF6230E829BD76A63264ECE825EDE0
S1231C606BAEE827AF6DEC6DC30001EDE812EC6BC9008900EDE810AEE810BFC904EEE81270
S1231C80FFC906FCC93DE3E812FDC93DFCC93BE9E811A9E810FDC93BAFE4EEE812EF628EB2
S1231CA01865BD66B48EC8BFBD5A71C632BD5E213264C1091022008DC64BBD3D316FE81336
S1231CC016FCCD8E1910BD5A71C64BBD3D31E6E813C1012621C664BD5E21C132231816FC16
S1231CE0AF7FC9C28E1826BD5A71C64BBD3D31C60532E82935E0C60516FC69C60616FC64EC
S1231D00C605F7C8F58E1877BD5A718E1899BD5A717DC95427136DE812270EC60ABD5E2158
S1231D205D26068E1814BD5A71C601BD04AFC104271D7FC9C28E18AABD5A71C64BBD3D3176
S1231D40C60516FC1FC64BBD3D31C60616FC157FC9C28E18B4BD5A716DE81210270039C6CB
S1231D600ABD5E21B6C93A3DC30001FDC9028E18BCBD5A71BEC902AFE38E184ABD5E668E93
S1231D80C8BFBD5A71FCC92DB3C902FDC92D326210830000102F0139C60ABD5E215D10278D
S1231DA00115C664BD5E214F1F02CC0000FDC90410BFC906F6C96B4F1F013278CC0000ED03
S1231DC064CC000AED66CC0000EDE4AF6230E82DBD76A6CC0000ED6410AF66AEE82DAFE40E
S1231DE0EEE82FEF6230E829BD76A63264ECE825ED67AEE827AF69EC69C30001EDE822ECBB
S1231E0067C9008900EDE820AEE820BFC904EEE822FFC906FCC93DE3E822FDC93DFCC93B16
S1231E20E9E821A9E820FDC93BAFE4EEE822EF628E1865BD66B48EC8BFBD5A71C64BBD3D94
S1231E4031C664BD5E213264C13110230064C601E7E81316FB3AC60ABD5E215D1026FCAF8A
S1231E608E1814BD5A7116FCA68E1919BD5A71C64BBD3D317FC9C2E6E8205858EBE820BD88
S1231E805E215CF7C8FD8E1928BD5BBD8EC8BFBD5A71F6C8FD4F1F01FCC92D3410A3E1FD85
S1231EA0C92D108300002F1FC64BBD3D31C60616FAB2C60616FAAD8E18CDBD5A71C64BBD2B
S1231EC03D31C60616FA9DC64BBD3D31C60216FA93C64BBD3D31C60216FA895245454E5455
S1231EE0455200594F55204645454C20484541565920464F522041204D4F4D454E540059C0
S1231F004F552053454520412050495400594F552041524520484F564552494E4720414294
S1231F204F564520412050495400444F20594F552057414E5420544F2044455343454E4462
S1231F403F203C343E205945530059455300594F552046414C4C20494E212100594F55201C
S1231F6053554646455220252048495420504F494E5453005A5A4150212120594F5527562A
S1231F8045204245454E2054454C45504F525445442E2E2E00594F55204841564520464F26
S1231FA0554E4420412043495243554C415220535441495257415900594F552053454520B2
S1231FC04C494748542041424F564500444F20594F552057414E5420544F203C313E2047F9
S1231FE04F2055502C203C343E20474F20444F574E00444F20594F552057414E5420544FF4
S1232000203C313E20474F20555000444F20594F552057414E5420544F203C343E20474F25
S123202020444F574E004F522053544159204F4E205448452053414D45204C4556454C3F67
S123204000444F574E005550005354415900594F55204841564520464F554E4420412048B8
S12320604F4C5920414C544152005052455353203C343E20544F20574F525348495000501A
S123208052455353203C343E20544F20444F4E415445204D4F4E455900484F57204D5543F8
S12320A04820474F4C443F8000594F5520444F4E275420484156452054484154204D5543BC
S12320C0482100594F552048415645204245454E204845415244005448414E4B20594F5501
S12320E020464F5220594F555220444F4E4154494F4E00444952545920504147414E205463
S1232100524153482100594F55204841564520464F554E44204120464F554E5441494E00AA
S1232120574954482052554E4E494E472025205741544552005052455353203C343E205467
S12321404F204452494E4B00594F55204645454C2042455454455200594F55204845414C3E
S123216020252048495420504F494E5453004954275320504F49534F4E21212100594F55A5
S1232180204C4F534520252048495420504F494E545300594F55204645454C205245465219
S12321A04553484544210041435455414C4C5920594F55275245204452554E4B2121005918
S12321C04F552048415645204245454E20444953504F53455353454421004D4147494320D1
S12321E0504F57455220535552474553205448524F55474820594F555220424F44590059FE
S12322004F55204E4F5720484156452025205350454C4C5300594F552043414E205345459A
S12322202041204C41524745204D495354592043554245003C343E20544F2057414C4B20D9
S1232240494E0049474E4F52450041204E554D4245522046524F4D203120544F2035308088
S123226000594F5520464C4F415420494E205350414345202E2E2E00594F552053454520C0
S123228041204A4557454C20454E43525553544544205448524F4E4500444F20594F5520D5
S12322A057414E5420544F205052593C343E20534F4D45204A4557454C532C005349543CBE
S12322C0333E20444F574E2C20524541443C323E205448452052554E4553004F522049471E
S12322E04E4F52453C313E2049543F00505259004E4F5448494E472048415050454E5300BE
S12323005448455920504F5020494E544F20594F5552204752454544592048414E44532118
S12323202100544845592041524520574F5254202520474F4C440053495400544845202539
S1232340204B494E472052455455524E530041204C4F554420474F4E4720534F554E445301
S123236021005245414400594F5520444F4E275420554E4445525354414E44205448454D3D
S12323802E2E2E0041204D5953544552494F5553204D4147494720475249505320594F55E3
S12323A02E2E00594F55202520474F455320444F574E204259203100594F55202520474FD1
S12323C04553205550204259203100594F5520534545204120534D414C4C20424F5820571C
S12323E049544820464F555220434F4C4F524544004C49474854532E20505553483C343E69
S123240020425554544F4E53204F522049474E4F52453A0050555348202855502F444F5744
S12324204E2F4C4546542F524947485429003C553E5245442C203C443E475245454E2C20A9
S12324403C4C3E59454C4C4F572C203C523E424C554500425554544F4E20544F2053544FE1
S1232460500053544F5000414E20454C45435452494320424F4C542053484F4F5453205403
S123248048524F55474820594F552121004954204F50454E53212100494E53494445205953
S12324A04F552046494E44204A4557454C5320574F525448002520494E20474F4C44212131
S12324C000346032E8BF7FC9C2108EC88AF6C8A0C104272F108EC88AE6A4C10923065F321A
S12324E0E84135E04FEDE458491F016E9924EF24DE26E9283E277B2503267A263B261627FA
S12325003527088E1F95BD5A71F6C8A0C104102700F2C64BBD3D317FC9C2F6C8A0C10410C4
S12325202700D0E6A4C104102703D18E2026BD5A71C696F7C8A86FE8296FE82716007BF6A2
S1232540C811E7E82AC508270AC601E7E829C604E7E827C604E4E82A270AC601E7E829C6B2
S123256003E7E827C602E4E82A270AC601E7E829C602E7E827C601E4E82A2708C601E7E870
S123258029E7E827F6C81BE7E828270AC601E7E829C605E7E827F6C81CE762270AC601E795
S12325A0E829C605E7E8276DE829270E6DE82826096D6226056DE82A270EBD3CBC7AC8A899
S12325C0F6C8A85D1026FF776DE827271FE6E827F7C8FEC104102702FBC101102702CC8EC6
S12325E02049BD5A71C60732E84135E0C602E7E82720DDE6A4C1041027059F8E1FF2BD5A0E
S12326007116FF27F6C93AC1011026FF058E1FB8BD5A7116FEFC8E2215BD5A718E2234BD29
S12326205A71C601BD04AFF7C8FEC104102705258E2243BD5A71C60716FEA48E2106BD5AE5
S123264071C605BD5E21F7C8FF1D58491F01AE890481AFE38E2120BD5B508EC8BFBD5A7140
S12326608E2135BD5A715FBD04AFF7C8FE3262C10410270637C60716FE658E204EBD5A71C7
S12326808E206ABD5A715FBD04AFF7C8FEC1041027052DC664BD5E21C146102202678E2026
S12326A0F3BD5A71C64BBD3D317FC9C27FC969C614BD5E21F7C962C10210270268C1041033
S12326C0270262C1071027025CC10910270256C10C10270250C1101027024AC11110270200
S12326E0447DC96927C9160241F6C93AC1011027023D8E1EE3BD5A71BD3CE97AC93AC67FAE
S1232700F7C8FCC60116FDD78E23CBBD5A718E23F1BD5A71C602F7C8A5C601BD04AFF7C8F9
S1232720FE7FC8A5C1041027020D8E2243BD5A71C60716FDAA8E2278BD5A71C64BBD3D31AF
S12327407FC9C28E2299BD5A718E22BCBD5A718E22DBBD5A71C601BD04AFF7C8FE7FC9C295
S1232760C101102703C7C1041027019DC103102704B8C102102705A416FD638E1F74BD5AF0
S123278071C602F7C8A6C65EF7C8A4BD3CBC7AC8A4F6C8A42EF5F6C939FBC938C40126030E
S12327A07AC93AF6C939FBC938C4022708F6C93ACB02F7C93AF6C93A585858E7E814F6C94C
S12327C039860D3D1F01EBE814FBC938E7E814F7C938C1C82305CB38F7C93886113D1F026D
S12327E0F6C93986073D1F011F20E7621F10E7E812E662EBE812F7C939C1C82308F6C9388A
S1232800CB38F7C9387DC93A2605C601F7C93AF6C93AC132102200DCC67FF7C8FCC602F794
S1232820C8A62003BD3CBCF6C8A4E7625CF7C8A4E662C15E2FEE7FC8A4C60116FCA1F6C93C
S12328403AC1321027FEAB8E1EFFBD5A717FC8FE7DC957102702E18E1F0DBD5A71C601F738
S1232860C8FEF6C8FEC101102703388E1F4EBD5A71C603F7C96BC609BD5E215CF7C8FE8E75
S12328801F5CBD5BBD8EC8BFBD5A71F6C8FE1D1F01FCC92D3410A3E1FDC92D1083000010FE
S12328A02F037D7CC93AC60116FC34F6C8A0C1041026FD2B7AC93A8E2046BD5A71C64BBD91
S12328C03D31C67FF7C8FC7DC93A102F0476E6E82716FC0BE6A4C1041026FD037CC93A8EA9
S12328E02041BD5A71C64BBD3D31C67FF7C8FCC60116FBEBC632F7C93A16FF1C8E200BBD53
S12329005A7116FC265F16FBD68E22ECBD5A71C664BD5E21C128102304648E22F0BD5A7134
S1232920C60716FBBAC601F7C969C61E16FBB0C604F7C8A016FBCC7FC9C28E2414BD5A7108
S12329408E242EBD5A718E2453BD5A71C64BBD3D315FBD05C4F7C8FE7FC9C27FC8117FC8F7
S12329601C7FC81BC104102F04C4CBFB1D58491F01AE8904A5BD5A71F6C8FECBFBF1C95E63
S123298010260479C64BBD3D317FC9C28E2414BD5A718E242EBD5A718E2453BD5A71C64BE6
S12329A0BD3D315FBD05C4F7C8FE7FC9C27FC8117FC81C7FC81BC104102F0472CBFB1D586A
S12329C0491F01AE8904A5BD5A71F6C8FECBFBF1C95F10260427C64BBD3D317FC9C28E242E
S12329E014BD5A718E242EBD5A718E2453BD5A71C64BBD3D315FBD05C4F7C8FE7FC9C27FDB
S1232A00C8117FC81C7FC81BC104102F0420CBFB1D58491F01AE8904A5BD5A71F6C8FECB59
S1232A20FBF1C960102603D5C64BBD3D317FC9C28E2414BD5A718E242EBD5A718E2453BDB1
S1232A405A71C64BBD3D315FBD05C4F7C8FE7FC9C27FC8117FC81C7FC81BC104102F03CECD
S1232A60CBFB1D58491F01AE8904A5BD5A71F6C8FECBFBF1C96110260383C64BBD3D317F32
S1232A80C9C28E248DBD5A718E2498BD5A71BD3D52C614BD5E21E7E824F6C93A4F1F01321F
S1232AA078CC0000ED64AF66EDE4AF6230E845BD76A6CC0000ED648E03E8AF6610AEE845BA
S1232AC010AFE4EEE847EF6230E841BD76A66CE82CE6E82C4F1F01CC0000ED64AF66AEE8FE
S1232AE041AFE410AEE84310AF6230E83DBD76A63264AEE83910AEE83BBFC90410BFC90656
S1232B00AFE410AF628E24B5BD66B48EC8BFBD5A71FCC93DF3C906FDC93DFCC93BF9C90594
S1232B20B9C904FDC93BC607326416F9B28E2243BD5A71C60716F9A7C614BD5E21E7E813F0
S1232B40F6C94DFBC947E1E8131025FD15C601F7C8FE16FD0DC664BD5E21C11310220132F4
S1232B60C632BD5E215CF7C93A8E2261BD5A71C601F7C8A6C604E7E826200B6AE826C601D9
S1232B80F7C8A6BD3CBCF6CABA26F86DE82626EBC67FF7C8FCC60116F9458E1FCCBD5A71D7
S1232BA016F9888E1F2ABD5A715FBD04AFF7C8FEC104102702238E170BBD5A715F16F91FA9
S1232BC08E207FBD5A715FBD04AFF7C8FEC1041026FAC07FC9C28EC350AFE3CC0000EDE322
S1232BE08E2099BD070CBFC900AFE81BCC0000EDE81910BEC93B10AFE81DFEC93DEFE81F36
S1232C003264ECE81510AEE819342010A3E1102302788E20A9BD5A71C64BBD3D3116FA7E34
S1232C20C64BBD3D31C60216F8B58E2337BD5A71C64BBD3D31C664BD5E21C146102301F983
S1232C40C614BD5E21F7C9621D58491F01AE890124AFE38E233BBD5B508EC8BFBD5A71C6B5
S1232C6005BD5E21B6C93A3DCB05F7C96ABD5E215CE764F6C9621D3406E6664F1F01BD76D6
S1232C80873262BFC963C64BBD3D31C61F326216F84DCC0032EDE3CC0001EDE38E224ABDF8
S1232CA0070C1F10F7C93A326416FEBD7FC9C2C664BD5E21C13B1022012DF6C8FF58FBC8C9
S1232CC0FFE7E82260E822E6E822CB13E7E822C614BD5E21E1E822102E016C8E2148BD5A1D
S1232CE071F6C93A58FBC93ABD5E215CF7C8FE8E2158BD5BBD8EC8BFBD5A71F6C8FE4FED4A
S1232D00E4F3C92D1F01BFC92D10BEC92B3420ACE12F0410BFC92DC60716F7C38E2362BD05
S1232D205A71C664BD5E21C1461022FF13C614BD5E21F1C9441025022D8E2367BD5A71C635
S1232D400716F79BE6E827F7C93A7FC9C2C607BD006EBD3E3B8E1EDBBD5A71C64BBD3D314E
S1232D607FC9C2F6C92FF7C8FFBD52EFF6C8FFF1C92F2705C64BBD3D31C60116F7618E23A7
S1232D8000BD5A71C664BD5E21E762F6C93A860A3DED6C6C62E6624F3406AE6EBD76873232
S1232DA062BFC9003184AF6ACE0000EF68FCC93DE36AFDC93DFCC93BE969A968FDC93B3448
S1232DC0108E2322BD5E668EC8BFBD5A71C64BBD3D31C607326216F7067CC93A8E1F4ABD0B
S1232DE05A71C60116F6F8C632BD5E21C114102300738E2193BD5A71C60716F6E2F6C93A0C
S1232E0058BD5E215CF7C8FE8E2467BD5A71F6C8FE8E184ABD5BBD8EC8BFBD5A71F6C8FE86
S1232E201D10B3C92D102C0133C60716F6B18E2462BD5A71C60716F6A6C664BD5E21C13C40
S1232E401023023A16FAD3C614BD5E21E7E823F6C8FF58FBC8FFE1E823102E0238BD551AAD
S1232E60C60716F67AC664BD5E21C132102301758E2193BD5A718E21A7BD5A71C610BD5E60
S1232E80215CF7C95DC60716F6551F03342011A3E110270249F6C93A86323D1F023406ACE4
S1232EA0E11025F7F9ECE81BA3E817EDE81FECE819E2E816A2E815EDE81DAEE81DBFC93BAF
S1232EC010AEE81F10BFC93DFEC900EFE832CC0000EDE830108E00643278ED6410AF66AEE3
S1232EE0E838AFE4EEE83AEF6230E845BD76A6ECE827E3E83AEDE818ECE825E9E839A9E803
S1232F0038EDE816AEE816AF64EEE818EF66ECE845EDE4AEE847AF6230E841BD7060326830
S1232F20E6E83CF7C8FE1F20BD5E21F1C8FE102C015AC607BD5E21F7C8FF1D8EC953318BB3
S1232F40E6A4E7E821F6C8FEBD5E215CEBE821E7A48E20C3BD5A71C60716F583C64BBD3DC1
S1232F6031C60216F5798E2384BD5A71C606BD5E21F7C8FEC664BD5E21C13210230036F696
S1232F80C8FE1D1F0230A9C943E684C10323DD5AE784F6C8FE1DEDE458491F01AE8901644A
S1232FA0AFE38E23A3BD5B5032628EC8BFBD5A71C60716F52AF6C8FE1D1F0230A9C943E6C7
S1232FC084C1111022FFA55CE784F6C8FE1DEDE458491F01AE890164AFE38E23B8BD5B5090
S1232FE0326216FFC5C664BD5E21C132102301018E21BFBD5A718E0002CCC9494FC4011F3A
S1233000021F103420A3E11F01C401E7E82C1027010C7FC949C601E7E825C609E7E82BC6A4
S12330200AE0E82CE7E82D54E7E82E58E7E82F2739E6E82C4F1F0230A9C9496F62CC000099
S1233040ED816C62E6E82EE16222F2E6E82BE0E82FE7E82BE6E825EBE82FE7E825E6E82F0D
S1233060E1E82D2605C60716F475E6E8251D1F016F89C9496CE8256AE82B26EE20E7C6646A
S1233080BD5E21C128102300A016F6EF8E20D7BD5A7116FEC28E216EBD5A71F6C93A58FB65
S12330A0C93ABD5E215CF7C8FE8E217DBD5BBD8EC8BFBD5A71F6C8FEE7E834BEC92D1D1F67
S12330C002341010A3E1102C00DFE6E8344F1F021F103420A3E1FDC92DC60716F40110AEF5
S12330E0E817EEE81B344010ACE11023FDA716FB218E21DABD5A71F6C93A5858BD5E2110BC
S1233100BEC93630213ABFC93634108E21FFBD5E668EC8BFBD5A71C607326216F3C16FE813
S123312025C60AE7E82B16FEF68E234EBD5A71C664BD5E21C132102200B2F6C92FE762F1A6
S1233140C93A1022F7D45AE767E662CBEF102B00624F1F01CC00023410301F8CFFFF27049F
S1233160584920F535101F02CE00003278CC0000ED648E03E8AF6610AFE4EF6230E845BDFE
S123318076A6326810AEE83D10AF63EEE83FEF65EC65C30001FDC932EC63C9008900FDC993
S12331A030BD52EFC60716F336C64BBD3D31C60216F32CC60FE0674F1F01E6674FEDE4CCD4
S12331C000013410301F8CFFFF2704445620F535101F02CC0002AEE43410301F8CFFFF27E9
S12331E004584920F535101F0316FF7FFCC9301F985F4646848074C93276C933BEC93234AD
S123320010AAE0EAE0FDC93274C93076C931BD52EFBEC92D2605C60216F2C4C60716F2BF6C
S12332203E00535441592E2E2E00594F552044494544212100414E4F54484552204E4F54EA
S123324020534F208000414E4F5448455280004D494748545920414456454E545552455285
S1233260800042495445532054484520445553548000444F20594F552057414E5420544FA5
S123328020800054525920414741494E3F203C312D343E80004C4F41442041204348415261
S12332A041435445523F203C343E8000434841524143544552204C4F414445440034403212
S12332C072BD560F5FBD006E8EFA50BFC82AF6C826F7CA63BD672DBD3EA8C601E764BD3C3C
S12332E0BC6D64102700CCF6C93AF7C96B7FC8FEF6C8FEBD0DB5E762F7C8FEC6FFF7C962A9
S12333007FC96ACC0000FDC963E662C101102701B1C102102701B6C1031027005BC1041033
S123332027006AC1051027006CF6C8FEBD194FE762F7C8FEC6FFF7C8F5E662C102102704E9
S123334089C10610270054C1051027003AF6C8FEBD24C1F7C8FEC1071027004FC1011027F5
S12333600446C1021027044BC11E2712C11F10260041F7C8FE16FF7B7FC8FE16FFAB7FC8AE
S1233380FEF6C8FE16FF6C7FC8FE16FFC0C601F7C8FE16FF947FC8FE16FFB2BD3DC85D106C
S12333A027FFAAC61FF7C8FE16FF487FC8FEC64BBD3D317FC9C28E3220BD5A71BD170EF76E
S12333C0C8FE5D102600F0F6C811E767C508102700CF7FC8A77DC8A7270D7DC8FE26086FC2
S12333E0647AC8A716FEF77DC8FE102703E2C6FFF7C962CC0000FDC963C696F7C8A7F6C9B5
S12334005327045AF7C953F6C95427045AF7C954F6C95527045AF7C955F6C95627045AF7D2
S1233420C956F6C95727045AF7C957F6C95827045AF7C958F6C95927045AF7C959F6C95A34
S123344027045AF7C95AF6C95B27045AF7C95BF6C95C27045AF7C95CF6C95D27045AF7C9F2
S12334605DF6C94EE7632732BEC92D1F104F10B3C92B2726E6634F1F031E0133CBFFC92D39
S1233480BEC92B1F304F341010A3E12F0D1F101DFDC92DC601E76416FF47C601E76416FFF0
S12334A040C604E46710260348C602E4671027FF24BD396316FF1EBD3E2EC619BD3D3116F0
S12334C0FF2C7FC8FEC64BBD3D3116FF217FC8FEF6C9C2C103102702E6C605F7C8A68E326D
S12334E02ABD5A71C64BBD3D317FC8F7C6FFF7C8F57FC8F3F7C9628EFA50BFC82A6F666FFA
S123350065160062F6C9C1CBF6F7C9C134048E3235F6C9C0BD5875C6CCD70CF6C9C1CBF61C
S1233520F7C9C1E7E48E324FF6C9C0BD5875C6CCD70CF6C9C1CBF6F7C9C134048E3262F69C
S1233540C9C0BD5875C6CCD70CF6C9C1CBF6F7C9C132626D6510270042E665C101102700FA
S12335607AC603BD006EC690F7C9C0C670F7C9C1BD703CBDF192BDF1BAC670D704C65FBD48
S12335806FBBF6C92FC1031023FF79F6C9C1CBF6F7C9C134048E324616FF76CBF6F7C9C1D3
S12335A034048E3272F6C9C0BD5875C6CCD70CF6C9C1CBF6F7C9C134048E3283F6C9C0BDA6
S12335C05875C6CCD70C32627DC811102701C7C601E766E665C1011026FF86BEC9088CFFC6
S12335E0FF102701C0F6C9C1CBF6F7C9C134048E3272F6C9C0BD5875C6CCD70CF6C9C1CBDB
S1233600F6F7C9C134048E3295F6C9C0BD5875C6CCD70CF6C811E76A32625D2704E665E7B6
S123362066C608E4682704C604E7666D681026FF306D661027FF2AE666C10410260166BEEB
S1233640C908BFC902BD560FBEC902BFC908BFC92BF6C90AF7C92FBEC90BBFC930FEC90D47
S1233660FFC932FCC90FFDC934F6C911F7C938F6C912F7C939BEC913BFC93FFEC915FFC9E7
S1233680418EC943CCC9173410AAE0EAE04FC401108300001026016DFCC917FDC943BEC950
S12336A019BFC945FEC91BFFC9478EC949CCC91D3410AAE0EAE04FC4011083000010260167
S12336C086BEC91DBFC949FEC91FFFC94BFCC921FDC94DBEC923BFC94FFEC925FFC9518EE5
S12336E0C927CCC95E3410AAE0EAE04FC4011083000010260136BEC927BFC95EFEC929FFB4
S1233700C9608E32ACBD5A71BEC92BBFC92DCC0000FDC93BFDC93DC601F7C93ABEC934BF16
S1233720C9368E0002CCC9534FC4011F031F103440A3E11F01C401E76A102701497FC9535F
S1233740C601E76DC60AE769C60BE06AE76BE66A4F1F0330C9C9536F62CC0000ED816C620E
S1233760E662C10423F3E669CBF6E76CE66DCB0AE762E66BC10A270FE6621D1F016F89C9B6
S1233780536C626A6C26F1BD3E3BF6C826F7CA63BD672D16FC58E666C1011026FDBB6F664D
S12337A0E76516FDBC16FB197FC8FEC64BBD3D3116FC3B7FC8FEF6C9C2C1031026FD1AC655
S12337C04BBD3D317FC9C216FD0F7FC8FE16FD007FC9C28E3222BD5A71C619BD3D31BD3D73
S12337E0C8F7C8FE5D1027FC05C61FF7C8FE16FB025FBD45A0C64BBD3D317FC8A7C601F70D
S1233800C8FE16FBD0F6C917F7C943F6C918F7C944F6C919F7C945F6C91AF7C946F6C91BB3
S1233820F7C947F6C91CF7C94816FE7EF6C927F7C95EF6C928F7C95FF6C929F7C960F6C937
S12338402AF7C96116FEBBF6C91DF7C949F6C91EF7C94AF6C91FF7C94BF6C920F7C94CF6B4
S1233860C921F7C94DF6C922F7C94EF6C923F7C94FF6C924F7C950F6C925F7C951F6C926A0
S1233880F7C95216FE596F6DC60BE76916FEB92020205354415453203E3E8000253A20252C
S12338A00044554E47454F4E3A20250048503A20252F25003C3C2056415253203E3E80001A
S12338C04C563A20250053553A20252F250058503A20250047443A20250054473A202500FD
S12338E03C3C204D4F4453203E3E800025202B25003C3C204954454D53800025203A25000A
S12339002D2D3E8000594F5520444F4E27542048415645204F4E45212100594F55205553C5
S123392045442025002A2A2A5A415021212A2A2A00594F55204645454C204245545445526D
S12339402100535452454E47544820464C4F5753205448524F55474820594F555220424FC7
S123396044590034603276BDF1BA7DC811270220F66F636F646F656F66BDF192BD703CBDB9
S1233980F1F8BDF1BAC67FD704F6C81BE7692F0D6D652609E663C10222035CE7636D692C73
S12339A00A6D6526066D6327026A63BDF2A5C678E7E46D6310260088C678E7E28E388FC628
S12339C0E0BD5875C6CCD70C108E000032611F2058491F01AE890164AFE3E6A9C9438E3844
S12339E09CBD6A6A1F2086F63D1F01CB5034048EC8BFC6E0BD5875C6CCD70C31213263107A
S1233A008C000626C9F6C93A8E38A1BD5BBDC60AE7E28EC8BFC6E0BD5875C6CCD70CBEC912
S1233A202BAFE3FEC92DEFE38E38ACBD6CEE6FE28EC8BFC6E0BD5875C6CCD70C6F663266FE
S1233A40E663C101102600B5E6E434048E38B4C6E0BD5875C6CCD70CF6C92F8E38C0BD5BBF
S1233A60BDC650E7E28EC8BFC6E0BD5875C6CCD70CBEC934AFE3FEC936EFE38E38C6BD6C1B
S1233A80EEC646E7E28EC8BFC6E0BD5875C6CCD70C327CBEC930AFE4FEC932EF628E38CECF
S1233AA0BD66B4326BC63CE7E28EC8BFC6E0BD5875C6CCD70C327CBEC93BAFE4FEC93DEF13
S1233AC0628E38D4BD66B4C632E7E28EC8BFC6E0BD5875C6CCD70C327CBEC93FAFE4FEC9C6
S1233AE041EF628E38DABD66B4326AC628E7E28EC8BFC6E0BD5875C6CCD70C3261E663C10F
S1233B000210260058C678E7E28E38E0C6E0BD5875C6CCD70CC650E769108E00003261E642
S1233B20A9C949E7E4272C1F2058491F01AE8901F9AFE3E6628E38ECBD6A6AE66A34048E44
S1233B40C8BFC6E0BD5875C6CCD70CE66BCBF6E76B32633121108C00071026FFC2E663C146
S1233B600310260140C678E7E28E38F1C6E0BD5875C6CCD70C108E000032611F2058491F34
S1233B8001AE890207AFE3E6A9C9508E38FBBD6A6A1F2086F63D1F01CB5034048EC8BFC60E
S1233BA0E0BD5875C6CCD70C31213263108C000326C9F6C81C2F0A6D6626066D6427026A37
S1233BC0645D2C0D6D662609E664C1012E035CE764E66486F63D1F01CB5034048E3900C6FE
S1233BE09BBD5875F6C81CE76732617DC811102700B3E664CB07E7641DED61E664CBF9E7DA
S1233C0064EE6130C9C949E684260E7FC9C28E3905BD5A716F6716008A5AE7847FC9C2ECB5
S1233C206158491F01AE8901F9AFE38E391ABD5B508EC8BFBD5A7132626D642621C601F74B
S1233C40C93AC619F7C938C60DF7C9398E3925BD5A71C67FF7C8FCC601E767160040E66491
S1233C60C10126288E3931BD5A7110BEC92DC614BD5E2130214F3410E3E1FDC92DBEC92B89
S1233C80341010A3E12F15BFC92D20108E3942BD5A71C614BD5E21CB0BF7C9536F67C64BA8
S1233CA0BD3D31200E7DC8112607E669E76516FCC86F677FC811E667326A35E0BD5A2FBD80
S1233CC0703CBD59E4BDF1BAC67FD704F6C8A42E0CC64F7DC9552705BDF2A92003BD6FBBD8
S1233CE0C603BD006EBD6F2539327AC601F7C8A27FC8A3C63EF7C845C60FF7C8448E13887B
S1233D00AF64201DEC64C3FFFBEDE41F894FE763AEE4AF641F10F7C84CE663F7C84BBD3C05
S1233D20BC7DC8A226DEC63FF7C8457FC8443266393404BD3CBC7DC81B26147DC81C260F56
S1233D407DC811260A6DE4260220046AE420E4326139C604BD5E21F7C95EC604BD5E21F7FD
S1233D60C95FC604BD5E21F7C960C604BD5E21F7C96139346034043184CE0000E6C9C97E4C
S1233D80E7C9C97FE6C9C992E7C9C9931F3058491F01EC89C9B8ED89C9BA335F1183FFED00
S1233DA026DAE6E4C1FF260EF7C96C7FC980CC0000FDC994200EE6E4F7C96CE667F7C98076
S1233DC010BFC994326135E03460327FC6FFF7C962F6C96CC1FF26046FE42013F7C962F62C
S1233DE0C980F7C96ABEC994BFC963C601E7E4CE0000E6C9C96DE7C9C96CE6C9C981E7C973
S1233E00C9801F3058491F0110AE89C99610AF89C99433411183001326D8C6FFF7C97F7F5E
S1233E20C993CC0000FDC9BAE6E4326135E06FE28E0000C6FFBD3D733261393440CE000045
S1233E40C6FFE7C9C96C6FC9C9801F3058491F01CC0000ED89C99433411183001426E1352C
S1233E60C03C343E20544F205553452053544154538000594F552044455343454E44204955
S1233E804E544F2054484580004445505448204F462054454C454E4741524480004245576E
S1233EA04152452E2E2E80003440327BCEC943C606BD5E21E761C606BD5E21E762C606BDF7
S1233EC05E21E7E4E661EB62CB03E761E6E4EB61E7C01183C94926D7C6FAF7C8A86F637A17
S1233EE0C8A8F6C8A85D1027FFC2C690F7C9C0C670F7C9C1BDF192BD703CBDF1BABDF1F84F
S1233F00F6C811E7E4C508102600965D2706C601E76320066D631026FF92C644D704CB2C36
S1233F20D704C65FBD6FBBF6C9C1CBF6F7C9C134048E3E61F6C9C0BD5875C6CCD70CF6C932
S1233F40C1CBF6F7C9C1BE0164AFE3F6C9438E389CBD6E08FC0166EDE3F6C9448E389CBDB9
S1233F606E08BE0168AFE3F6C9458E389CBD6E08FC016AEDE3F6C9468E389CBD6E08326909
S1233F80BE016CAFE3F6C9478E389CBD6E08FC016EEDE3F6C9488E389CBD6E08326416FF43
S1233FA03EF6C9464FFDC92BFDC92DCC0000FDC93BFDC93DFDC93FFDC941C601F7C92FF7FE
S1233FC0C93AC619F7C938C60DF7C9398E00006F89C9496F89C95330018C000A26F17FC965
S1233FE05DBD3D52CC0000FDC930FDC9328E0001BFC934BFC936CE0000C6FFE7C9C96C6F6A
S1234000C9C9801F3058491F01CC0000ED89C99433411183001426E16F64C690F7C9C0C649
S123402070F7C9C1BDF192BD703CC670D704C65FBD6FBBF6C9C1CBF6F7C9C134048E3E738C
S1234040F6C9C0BD5875C6CCD70CF6C9C1CBF6F7C9C134048E3E89F6C9C0BD5875C6CCD71D
S12340600CF6C9C1CBECF7C9C134048E3E9DF6C9C0BD5875C6CCD70C6C673263E664C1A145
S12340801026FF96326535C04C4556454C2025800041424F5254004341535400594F5520C8
S12340A0444F4E275420484156452054484154204C4556454C205350454C4C532100594FB7
S12340C05520444F4E2754204841564520454E4F554748205350454C4C20554E495453216D
S12340E000434153543A202500554E4445414420444F4E275420534C45455021005448454A
S123410020252049534E275420534C454550592100544845202520495320534C45455049FA
S12341204E47203C343E20544F204B494C4C3A00455641444500495420574F4B45205550B2
S12341402100594F55204645454C2042455454455200544845202520495320494E53554C8E
S1234160544544004154204245494E472043414C4C454420554E4445414400544845202588
S1234180204C495354454E532057495448204445414620454152530049542052554E5320DD
S12341A0494E2046454152212100544845202520444F4447455320415349444521005448A5
S12341C045202520495320574542424544203C343E20544F204B494C4C3A00495420425264
S12341E04F4B452046524545210054484520554E444541442049474E4F52455320594F5573
S1234200522057494C455321005448452025205245534953545320594F55210054484520D1
S12342202520495320434841524D4544203C343E20544F204B494C4C3A005A5A5A5A414184
S1234240415050502121210054484520252049474E4F52455320594F552100544845202505
S12342602049532048454C44203C343E20544F204B494C4C3A00544845202520444F4553B9
S12342804E27542042454C49455645210049542042454C494556455321202E2E2E2E2041AE
S12342A0525247482E2E2E004E4F5420494E204D454C4545212100444952454354494F4E2A
S12342C03E004F4E4C592053544F4E4520484552452E2E2E00454153540057455354004E25
S12342E04F52544800534F555448003F3F3F00504F4F460057484F4F4F4F4F5348482121AA
S123430021005448452025204953204255524E494E47210054484520252049532049534E54
S12343202754204146464543544544004F4E452053544F4E45205354415455452E2E2E2E73
S1234340004449452121212121212100554E444541442041524520414C5245414459204471
S12343604541442121005448452025204C41554748532100434153542054454C45504F529C
S1234380540054454C45504F5254218000425554544F4E20544F2046494E49534880004E67
S12343A04F5254482D20534F5554482B203A20258000574553542D20454153542B2020204A
S12343C03A2025800055502D20444F574E2B20202020203A20258000544F204641522E2EEE
S12343E02E54525920414741494E004F4E4C592053544F4E452054484552452E2E2E0054AB
S12344004845205350454C4C204641494C532E2E2E004F4E4C59205448494E204149522E93
S12344202E2E002A2A2A20504F4F4621202A2A2A005157455254592121212121210054483D
S123444045202520444F45534E275420484541522E2E2E004252525252212121210043415E
S123446053542057414C4C204F462046495245202D205757484F4F4F535348212121004164
S12344802057414C4C204F46204649524520415050454152532041424F555420594F5500E9
S12344A0544845202520495320474F4E452E2E2E0054484520252057414C4B53205448526D
S12344C04F55474821212100424C41434B20444541544820464F52205448452025200049A9
S12344E05420495320494D4D554E452100544845205350454C4C204241434B464952455371
S123450021210054494D452049532046524F5A454E2C204D4F4E53544552532043414E4E6F
S12345204F540041545441434B20594F5500544845202520444F45534E2754205345452E9A
S12345402E2E0041205343494E494C4C4154494E47205348494654494E472057414C4C202D
S12345604150504541525300594F55204A55535420574153544544204120434F4D424154A9
S1234580205350454C4C21004954205355464645525320252048495420504F494E54530034
S12345A0346032E8E7E765F6C92F4FEDE4CC0003EDE3AE62BD704332621F10E76E6F6C6F87
S12345C06D6F6FBDF192BD703CBDF1F8BDF1BAC67FD704F6C81BE7E42F0D6D6F2609E66C78
S12345E0C10422035CE76C6DE42C0A6D6F26066D6C27026A6CE66CE16E1022003CBDF2A554
S1234600F6C81C2F0A6D6F26066D6D27026A6D5D2C0D6D6F2609E66DC10422035CE76DC64D
S123462006E06D5858585834048E3900C69BBD5875C6CCD70C32612003BDF2A1C601E76F41
S12346407DC81B2609F6C81C2702C601E76FE66C5C8E4088BD5BBDC678E7E28EC8BFC6E00C
S1234660BD5875C6CCD70CE66D4FED6158491F01EE890430108E000032611F3030AB1F2041
S123468058585850CB603404AE84C6B0BD5875C6CCD70C31223261108C000C26DDF6C81154
S12346A0E762C50127098E4091BD5A71160BA06D62260316FF0D7FC9C28E4097BD5A71E618
S12346C06CE16E23098E409CBD5A71160B81E66C4F1F0210B3C93623098E40BEBD5A711681
S12346E00B7D7FC9C21F2058491F01E66D4FEDE45849AE890430308BAE84AFE38E40E1BDBA
S12347005B508EC8BFBD5A71FCC9363420A3E1FDC93632626D6C102601806D6D260DC6087F
S1234720BD5E21CB05F7C8FE160B39E66DC101102600886D6510270B1B7DC96927098E40A3
S1234740E9BD5A71160B18C614BD5E215CF1C944231FF6C9621DEDE458491F01AE890124CD
S1234760AFE38E40FDBD5B508EC8BFBD5A711600C1F6C9621DEDE458491F01AE890124AF21
S1234780E38E4111BD5B508EC8BFBD5A71C601BD04AF3262C10427098E4130BD5A711601EF
S12347A080C605BD5E21C1032203160AE58E4136BD5A71C64BBD3D31160AA4E66DC10226B7
S12347C0298E4142BD5A7110BEC92DC608BD5E2130214F3410E3E1FDC92DBEC92B341010A4
S12347E0A3E12F03BFC92D160A75E66DC103260DC60BBD5E21CB05F7C955160A62E66DC1E3
S123480004102600806D6510270A497DC9692627F6C9621DEDE458491F01AE890124AFE3C4
S12348208E4152BD5B508EC8BFBD5A718E4164BD5A71C601160A13C614BD5E21E7E4F6C9F9
S12348406AE766F6C92FFBC945E066E763E6E4E163231FF6C9621DEDE458491F01AE8901BE
S123486024AFE38E417BBD5B508EC8BFBD5A7116FFC06C66E66654F7C96A8E4198BD5A71CF
S1234880C605160A0FE66DC105102609C2C60BBD5E21CB05F7C9561609C5E66CC1011026DF
S12348A0015F6D6D102600966D65102709A6C606BD6F6B3184C605BD6F6B3420BD7687327C
S12348C062F6C96A4FEDE4308BF6C9444F1F033406ACE1231FF6C9621DEDE458491F01AE73
S12348E0890124AFE38E41AABD5B508EC8BFBD5A7116FF3EF6C9621DEDE458491F01AE899C
S12349000124AFE38E41BEBD5B5032628EC8BFBD5A71C601BD04AFC104270B8E4130BD5A72
S123492071C60416096EC614BD5E21F0C96AC10A230316095D8E41DBBD5A71160921E66D40
S1234940C101260DC615BD5E21CB05F7C95716081DE66DC102260DC60CBD5E21CB03F7C841
S1234960FE160900E66DC103260DC615BD5E21CB05F7C9541608E8E66DC1041026006D6DA3
S123498065102708CF7DC96927098E41EABD5A711608CCC606BD6F6B3184C605BD6F6B34E8
S12349A020BD768732623001F6C9484F1F033406ACE1231FF6C9621DEDE458491F01AE89CC
S12349C00124AFE38E4209BD5B508EC8BFBD5A7116FE5FF6C9621DEDE458491F01AE8901C3
S12349E024AFE38E421CBD5B5016FF1EE66DC1051026085BC615BD5E21CB05F7C9531608AC
S1234A005EE66CC102102601406D6D261E8E423ABD5A71C64BBD3D31F6C92F58FBC92F582B
S1234A20BD5E21CB0FF7C8FE160839E66DC10126298E4142BD5A7110BEC92DC618BD5E216D
S1234A4030214F3410E3E1FDC92DBEC92B341010A3E12F03BFC92D160805E66DC102260DDA
S1234A60C61FBD5E21CB05F7C9551607F2E66DC103260DC615BD5E21CB05F7C9581607DFD8
S1234A80E66DC1041026007E6D65102707C6C614BD5E21FBC96AF1C944231FF6C9621DEDC1
S1234AA0E458491F01AE890124AFE38E4248BD5B508EC8BFBD5A7116FD78F6C9621DEDE4A8
S1234AC058491F01AE890124AFE38E425BBD5B508EC8BFBD5A71C601BD04AF3262C104273C
S1234AE0098E4130BD5A71160684C621BD5E21E767F6C96ACB07E16724031607958E41DB4B
S1234B00BD5A71160759E66DC105102607416D6510270740C616BD5E21FBC96AF1C9442543
S1234B201FF6C9621DEDE458491F01AE890124AFE38E4276BD5B508EC8BFBD5A7116FCF245
S1234B408E428DBD5A71160749E66CC1031026021E6D6D102601006D6527098E42A8BD5AF8
S1234B60711606FB8E42B7BD5A717FC8FFC6FAF7C8A8BD3CBC7DC8A82605C6FFF7C8FF7D60
S1234B80C81B2F24F6C938C1C826098E42C2BD5A711606CB5CF7C938C603F7C8FC8E42D5AE
S1234BA0BD5A71C601F7C8FF7DC81B2C1BF6C938C10227D75AF7C938C604F7C8FC8E42DA04
S1234BC0BD5A71C602F7C8FF7DC81C2F1DF6C939C1021027FFB55AF7C939C601F7C8FC8E0D
S1234BE042DFBD5A71C603F7C8FF7DC81C2C1BF6C939C1C826045CF7C939C602F7C8FC8EC8
S1234C0042E5BD5A71C604F7C8FFF6C811C5082705C6FFF7C8FFF6C811C5042705C6FFF78E
S1234C20C8FFF6C811C5022705C6FFF7C8FFF6C811C5012705C6FFF7C8FFF6C8FF26067ABD
S1234C40C8A816FF2DC1FF26058E42EB20038E42EFBD5A711605F8E66DC1011026003A8E68
S1234C6042F4BD5A71C64BBD3D31F6C9621DEDE458491F01AE890124AFE38E4302BD5B503D
S1234C808EC8BFBD5A71F6C92F860C3D1F01BD5E21CB0FF7C8FE160416E66DC102260DC684
S1234CA020BD5E21CB0AF7C8FE1605B8E66DC103102600376D651027059AC60ABD5E21C136
S1234CC006231FF6C9621DEDE458491F01AE890124AFE38E4314BD5B508EC8BFBD5A7116CA
S1234CE0FB508E432CBD5A71160483E66DC104260DC61EBD5E21CB05F7C959160561E66D20
S1234D00C105102605498E4341BD5A716D65102705427DC96927098E434CBD5A7116053F7D
S1234D20F6C96A5858CB1E4FED68F6C92F58FBC92F4F1F01EC683410A3E1FDC902C64BBDAF
S1234D403D31C664BD5E214F10B3C90210220542F6C9621DEDE458491F01AE890124AFE367
S1234D608E4366BD5B508EC8BFBD5A7116FAC3E66CC104102603A16D6D1026024A6D6527DA
S1234D80098E42A8BD5A711604D57FC9C28E4374BD5A71108E000010AFE81010AFE8126FC3
S1234DA0E814BD703CBDF1F8BDF1BABDF192BDF2A5C67FD704C678E7E28E4382C6E0BD58B3
S1234DC075C6C0E7E28E438DBD58751F208E439FBD67F5C650E7E28EC8BFC6B0BD5875E681
S1234DE0E8148E43B2BD67F5C630E7E28EC8BFC6B0BD5875E6E8178E43C5BD67F5C610E7F2
S1234E00E28EC8BFC6B0BD587532656DE8142623C650E7E28E3900C69BBD5875F6C81B32B2
S1234E20615D2F066D6F260231215D2C066D6F2602313FE6E814C1012634C630E7E28E399E
S1234E4000C69BBD5875F6C81BE76332615D2F0D6D6F2609ECE810C30001EDE8106D622C81
S1234E600D6D6F2609ECE810C3FFFFEDE810E6E814C1022634C610E7E28E3900C69BBD58B1
S1234E8075F6C81BE76332615D2F0D6D6F2609ECE812C30001EDE8126D622C0D6D6F26099B
S1234EA0ECE812C3FFFFEDE812F6C81CE7622F0C6D6F26086DE81427036AE8146D622C0FF5
S1234EC06D6F260BE6E814C1012E045CE7E814C601E76F7DC81B2608E6622702C601E76F73
S1234EE07DC811260316FEBAEEE810AEE812AFE817F6C92F5858FBC92F4FEDE430A4108C04
S1234F0000002C081F20405082001F01ACE42E2530C4118300002C081E01405082001E01F9
S1234F20ACE42E11AEE8172C081E01405082001E01ACE42F0E8E43D8BD5A71C64BBD3D3133
S1234F4016FE50F6C9384FEDE4E3E810EDE815F6C939E762F6C93AE76AEEE815305F8C007C
S1234F60C72223E6624FEDE431AB108C00002F16108C00C82E10E66A4FEDE4AEE812308B87
S1234F801F10C1322F0F8E43EBBD5A718E43FFBD5A711602CA1F105D2E0F8E4412BD5A71FA
S1234FA08E43FFBD5A711602B6ECE815F7C9381F20F7C9391F10F7C93A8E4423BD5A71C642
S1234FC07FF7C8FC160288E66DC101260DC610BD5E21CB05F7C95A160194E66DC1021026B8
S1234FE000446D651027026C8E4431BD5A71C64BBD3D317DC969270316FD1CC60BBD5E2116
S1235000C108231FF6C9621DEDE458491F01AE890124AFE38E443EBD5B508EC8BFBD5A71AE
S123502016F80F16026CE66DC10326196D65102702228E4454BD5A71C63CBD5E21CB05F795
S1235040C8FE16021FE66DC104102600677FC9C28E445EBD5A718E447FBD5A71C64BBD3DF4
S123506031C60ABD5E21C104231FF6C9621DEDE458491F01AE890124AFE38E44A0BD5B5050
S12350808EC8BFBD5A711601BFF6C9621DEDE458491F01AE890124AFE38E44B1BD5B508E62
S12350A0C8BFBD5A71C60ABD5E21CB0FF7C8FE32621601B0E66DC105102601936D651027F3
S12350C001927DC9691026FC4EF6C9621DEDE458491F01AE890124AFE38E44C8BD5B508EBC
S12350E0C8BFBD5A71C614BD5E213262F1C94523098E44DFBD5A71160165C643BD5E21E7E7
S12351006BF6C946CB21E16B23031601428E44EDBD5A71C60716017CE66CC1051026012F3F
S12351206D6D26218E4503BD5A718E4523BD5A71C614BD5E21CB04F7C95BC6066D6510269A
S1235140015216011AE66DC101260CC628BD5E21CB05F7C95C2017E66DC102102600336D47
S123516065102700EFC60BBD5E21C10A2705E66D160121F6C9621DEDE458491F01AE890109
S123518024AFE38E452EBD5B508EC8BFBD5A7116F6A0E66DC103102600666D6527098E421E
S12351A0A8BD5A711600B88EC9496F808CC95326F9CC0000FDC93BFDC93D108E0000C6FF64
S12351C0E7A9C96C6FA9C9801F2058491F01CC0000ED89C9943121108C001426E1C601F73F
S12351E0C93AC619F7C938C60DF7C939BEC92BBFC92D8E3925BD5A71C64BBD3D3116005F79
S1235200E66DC104260F8E4142BD5A71BEC92BBFC92D16004AE66DC105102600328E454346
S1235220BD5A716D65272DC64BBD3D31F6C9621DEDE458491F01AE890124AFE38E44A0BD93
S12352405B508EC8BFBD5A71C6063262160045C6021600408E4568BD5A71C64BBD3D31C664
S1235260011600306D6527ECF6C8FE8E4588BD5BBD8EC8BFBD5A71F6C8FE1D1F03BEC96390
S12352801F103440A3E1FDC963108300002D0316FFCDC60332E81935E0594F552057454EFD
S12352A0542055502041204C4556454C2100594F55204741494E20252048495420504F4929
S12352C04E545300594F5520474F20444F574E2041204C4556454C2100594F55204C4F53A5
S12352E04520252048495420504F494E54530034603270F6C92FFEC93010BEC9325AE76198
S12353004F6C613406327CCC0000EDE4CC0002ED6230E812BD6FC0327ECC0000ED648E0357
S1235320E8AF66ECE814EDE4AEE816AF6230E810BD76A63268AE68EC6A3440ACE1102200BC
S1235340BE2609342010A3E1102200B38E5299BD5A71F6C92FE7E45CF7C92FE6E44F340637
S1235360327CCC0000EDE4CC0002ED6230E812BD6FC0327ECC0000ED648E03E8AF66ECE87C
S123538014EDE4AEE816AF6230E810BD76A63268EC68ED64AE6AAF66F6C946BD5E215CE776
S12353A062F7C8FE1D1F03FCC92D30CBBFC92D1F30F3C92BFDC92BAE64BCC930250926188F
S12353C0AE66BCC9322411EC66C3FFFFFDC932EC64C9FF89FFFDC930F6C92F4F1F03FCC904
S12353E03630CBBFC9361F30F3C934FDC934E6628E52AEBD5BBD8EC8BFBD5A711600DAE663
S123540061C10122088E0000CC00002045E661CBFEE7614F1F01E661CB02E7613410327C67
S1235420CC0000EDE4CC0002ED6230E812BD6FC0327ECC0000ED648E03E8AF66ECE814ED68
S1235440E4AEE816AF6230E810BD76A63268AE68EC6A3440ACE1220D1026007D342010A3B6
S1235460E110230074E6614F1F01FCC9363406ACE12305CC000020043410A3E1FDC936FC50
S1235480C9343410A3E1FDC9348E52C4BD5A717AC92FF6C946BD5E215CE763F7C8FEFEC940
S12354A02D1D1F01340611A3E12D057DC92F2608CC0000FDC92D20211F303410A3E1FDC9FD
S12354C02DFCC92B3410A3E1FDC92BE6638E52D9BD5BBD8EC8BFBD5A7132E81035E0594F97
S12354E055204741494E4544202520455850455249454E434520504F494E545300594F5544
S1235500204C4F5354202520455850455249454E434520504F494E5453003270F6C93ABD83
S12355205E215C4FED6A58495849ED6858495849584958495849A368E36A58495849FDC9CA
S123554002C602BD5E21C1012631BEC902AFE38E54DEBD5E66FCC902ED681F891D5959C475
S12355600150ED66FCC932E368FDC932FCC930E967A966FDC9303262160056BEC902AFE3E4
S12355808E54FDBD5E66FCC930ED6EBEC932AFE8103262EC6C10B3C904250A2613EC6E10A9
S12355A0B3C906240BCC0000FDC930FDC9322021BEC902AF621F101F891D5959C40150EDF9
S12355C0E4EC6EA362FDC932EC6CE261A2E4FDC9308EC8BFBD5A71BD52EF32E81039344003
S12355E0327C6F63E6634FEDE4584958495849CEC88030CB6F62CCFFFFED816C62E662C1EA
S12356000426F36C63E663C10426D9326435C03440327DC601BD006EBD67617FC9BC7FC91C
S1235620BD6F62E6624FEDE4584958495849CEC88030CB5FCEFFFFEF815CC10426F66C62D6
S1235640E662C10426DDC67FF7C8FCC6FAF7C8A7F7C8A8C601F7C96BFFC9087FC8A07FC8B9
S1235660A27FC8A37FC8A47FC8A57FC8A67FCABAF7C8F31F30F7C962F7C8F4C601F7C8F780
S12356801F30F7C8F57FC8F87FC8F97FC8FA7FC8FB326335C0000828281E94400810082AE3
S12356A0080000000414183C3C183C3C7C3C3E0000060060383C187038787C787C423E1C92
S12356C0484066621C781C781C3E42424242227E3820381000083C4000023C18342008086E
S12356E020100000000000001C1000000000000018081800600008007C2868400020041C1E
S12357000800000008220842422840400842420808187E184444244844444040804208040B
S123572050405A5222442244200842425A241404201008280008027C1C3E42104C38000005
S12357402410662E3C7C3E2C203C22428242423C1008080060000800281C14320020043EE5
S12357603E003C001022081C0C483C7E103C3E0000600006189C3C78804470709C7E080425
S123578070405A4A22782A681C0842245A1808182008080000003E4220427E383424080839
S12357A028105A324242423218102242822C340820080432700000007C0A2A4C0020041CA9
S12357C00800000020220820427C02422042020008187E1800944244444440408442084403
S12357E04840424622402658020842246624082020040800000046622046401004240828B1
S123580030104222427C3E2004102624543408101008084C68000800283C04320010082A0E
S12358200808000840141C7E3C083C3C403C3C0810060060105C427838787C4078423E38AA
S1235840447C42421C401C441C083C184242087E380238007E003A5C1C3A3C101C2408183A
S12358602C1842223C40022038181A186C42083C1808180060A6623466ECE4970186CE97DD
S12358800C4F9700BFC82C0C00D70197058E5615F6C82B86011F026AE43088608618FEC88B
S12358A02CC640D50D27FC970BCC00809701D700109F00E6C0E685D70AE6C02AF8970086CA
S12358C098970BCC02CCD70C12124A26FBECE4970186CE970C4F9700120C00D70197056A3D
S12358E0E43088608618FEC82CC640D50D27FC970BCC00809701D700109F00E6C0E685D719
S12359000AE6C02AF897008698970BCC02CCD70C12124A26FBECE4970186CE970C4F970009
S1235920120C00D70197056AE43088608618FEC82CC640D50D27FC970BCC00809701D70073
S1235940109F00E6C0E685D70AE6C02AF897008698970BCC02CCD70C12124A26FBECE49710
S12359600186CE970C4F9700120C00D70197056AE43088608618FEC82CC640D50D27FC971B
S12359800BCC00809701D700109F00E6C0E685D70AE6C02AF897008698970BCC02CCD70C00
S12359A012124A26FBECE4970186CE970C4F9700120C00D70197053088608618FEC82CC60F
S12359C040D50D27FC970BCC00809701D700109F00A6C0A686970AA6C02AF8D700CC00987C
S12359E0DD0A35E6CC0300DD000A00C6085A26FD0C00CC402097018601D500260800014005
S1235A00D50027014FB7C81CCC0100DD000A00C6085A26FD0C00CC402097018601D500264A
S1235A2008000140D50027014FB7C81B2700398620BEC8253001BFC825950D27FCCC30756F
S1235A40DD08CC00CCD70C970A9701CC03029700D700C601D7003934403384AE64E684E705
S1235A60C03001E6842704C18026F4C680E7C435C034403384F6C9C2C10327131D58491FD4
S1235A80013440AE890098BD5A577CC9C2326235C034403384E684C120261230C43001E607
S1235AA084E71F26F86F84E6C4C12027EE30C435C03460327EE7E4C1C7234CCB38E7E410DA
S1235AC08E32306F61CE32388E3234C14F232ECBB0E7E430C4C1132306CBECE7E43002C1C9
S1235AE009233ACBF6E7E43001BFC8A9E6E4CB30F7C8AB7FC8AC8EC8A9326235E0C127237A
S1235B003FCBD8E7E420CEC1632322CB9CE7E4108E31306F61CE31388E313420AE8C2030A8
S1235B2026C7E661C10126C18E202020BC108E2030C601E761CE20388E2034E6E416FF8B6B
S1235B4030A4E6E416FF8EBD5AB18EC8A97E5A9134603279AF623001AFE4301FE680E766BA
S1235B60108EC8BFC125272ECE00002002EE64E666E7C9C8BF3041AF643189C8BFEC6230B9
S1235B80CBE601E7661F30C30002AE62308BAFE4E666C12526D7AE6DE68427083001E7A0F5
S1235BA0E68026FAEEE4E6C427083041E7A0E68026FAC680E7A48EC8BF326735E0346032D8
S1235BC077AF62BD5AB18EC8A9BD5A91AF64AE623001AFE4301FE680E768108EC8BFC125D4
S1235BE0272ECE00002002EE66E668E7C9C8BF3041AF663189C8BFEC6230CBE601E7681F1E
S1235C0030C30002AE62308BAFE4E668C12526D7AE64E68427083001E7A0E68026FAEEE441
S1235C20E6C427083041E7A0E68026FAC680E7A48EC8BF326935E03460327C10AE6AE762C0
S1235C408C9C3F10220140CE3030CC3230EDE48C4E1F1022012AEFE48C270F230B3089D88F
S1235C60F0ECE4C30100EDE46D62270AEEE4118330301027013D6F638C1F3F102300EC3085
S1235C8089E0C0ECE4C30008EDE48C07CF230B3089F830ECE4C30002EDE48C03E7230B30C0
S1235CA089FC18ECE4C30001EDE46D62270AE663C101102701096F63EEE4EFA48C031F109D
S1235CC02300943089FCE0CE3830CC3A30EDE48C00C71022007AEFE48C0063230A30889CF5
S1235CE0ECE4C30100EDE46D62270AE663C101102700DE6F638C004F23453088B0ECE4C30B
S1235D000008EDE48C0013230A3088ECECE4C30002EDE48C000923093016ECE4C30001ED48
S1235D20E46D622708E663C10110270074EEE4EF221F10CB30E7246F2530A4326435E08C10
S1235D40002723C03088D8ECE4C30004EDE420B43089FF3816FF818C018F233A3089FE7043
S1235D60CE3430CC3630EDE416FF648C0F9F1023FF183089F060ECE4C30004EDE416FF0A5D
S1235D803089B1E016FED1308963C0CE3430CC3630EDE416FEB9CE3030CC3230EDE416FFB0
S1235DA02EEEE4118320301026FF82CC2020EDE416FF7ACC2030EDE4C601E76316FEB9EE1F
S1235DC0E4118320301026FEEDCC2020EDE416FEE7EEE4118330301026FF18CC2030EDE4FE
S1235DE016FF123440CEC8ADEFE3C601BD5C37326235C0327EF6CA635CE7E4F7CA63F6CA71
S1235E0066F8CA64E761E6E4E861E761F7CA64FBCA65F7CA6554FBCA66E861F7CA66326257
S1235E2039327DE761273CF6CA635CE7E4F7CA63F6CA66F8CA64E762E6E4E862E762F7CAAA
S1235E4064FBCA65F7CA6554FBCA66E862E7E4F7CA66E6614F3406E6624F1F01BD702B32BE
S1235E60621F103263393460327BAFE4108EC8AD3420C601AE6DBD5C3730A4BD5A9110AE18
S1235E8062E6A0E7663262CEC8BFC125272E108E0000200310AE62E664E7A9C8BF3021AF63
S1235EA0623389C8BFECE430ABE601E7641F20C30002AEE4318BE664C12526D8F6C8AD274A
S1235EC0098EC8AEE7C0E68026FAE6A427083021E7C0E68026FAC680E7C4326535E034601C
S1235EE0327910AE6D10AF62EE6FEF643384108C77351022063110270622CC3030EDE48EA5
S1235F00313010AE62108C3B9A1022032710270318AEE48C30301026032B108E203010AF4E
S1235F20E4C601E766AE628C2FAF10230322EC64C3F800ED64EC62C95089D0ED62ECE4C395
S1235F400008EDE4AE628C0BEB102203328C0BEB1027067CAE628C05F5102203418C05F59E
S1235F6010270693E666C101102703506F66ECE4EDC4AE628C04C41022035D1027034FECF4
S1235F806210830262102305DFEC64C3A600ED64EC62C99D89FDED628E3430108E363010F4
S1235FA0AFE4EC62108301311023034FEC64C3D300ED64EC62C9CE89FEED62AE628C00988C
S1235FC01023034AEC64C36980ED64EC62C96789FFED62ECE4C30100EDE4E666C1011027F1
S1235FE005C06F66EC621083007A1022033F10270330AE628C003D10230559EC64C3F70056
S1236000ED64EC62C9C289FFED62ECE4C30004EDE4AE628C001E10230332EC64C37B80EDF6
S123602064EC62C9E189FFED62ECE4C30002EDE4AE628C000F102204B3102704A5E666C142
S123604001102704C56F66ECE4ED42AE628C000C1022031610270308EC6210830006102318
S123606004DFEC64C3E580ED64EC62C9F989FFED628E3430108E363010AFE4EC621083000F
S12360800310230308EC64C3F2C0ED64EC62C9FC89FFED62AE628C000110230303EC64C3D2
S12360A07960ED64EC62C9FE89FFED62ECE4C30100EDE4E666C101102704D46F66EC621011
S12360C0830001102202F8102702E9AE62102704E4EC64C363C0ED64EC62C9FF89FFED6247
S12360E0ECE4C30004EDE4AE62102702EEEC64C3B1E0ED64EC62C9FF89FFED62ECE4C30088
S123610002EDE4AE62102603A910AE64108C270F1022039EE666C101102703B46F66ECE44E
S1236120ED44AE62260B10AE64108C1F3F102304E2EC64C3E0C0ED64EC62C9FF89FFED62C3
S12361408E3830108E3A3010AFE4EC621026035010AE64108C07CF10220345AFE4AE621002
S123616026030C10AE64108C03E710220301E666C101102703176F66EC622609AE648C03B6
S12361801F102304A1EC64C3FCE0ED64EC62C9FF89FFED62ECE4C30008EDE4AE6210260223
S12361A0B510AE64108C00C7102202AAAE621026027110AE64108C006310220266E666C142
S12361C0011027027C6F66ECE4ED46AE62260B10AE64108C004F1023042AEC64C3FFB0EDCF
S12361E064EC62C9FF89FFED62CC38308E3A3010AE621026021B10AE64108C0013102202A6
S1236200101F0110AE62102601DFEC6410830009102201D5E666C101102701E8E6653AAFBE
S1236220486F4A30C4326735E010AE64108CC9FF1023FCDDEC64C33600ED64EC62C9658986
S1236240C4ED62AFE46F66AE628C2FAF1022FCDE8C2FAF10270393AE628C17D71023031B27
S1236260EC64C37C00ED64EC62C92889E8ED62ECE4C30004EDE4AE628C0BEB1023FCCEEC58
S123628064C33E00ED64EC62C91489F4ED62ECE4C30002EDE4AE628C05F51023FCBFEC6413
S12362A0C31F00ED64EC62C90A89FAED62ECE4C30001EDE4E666C1011026FCB0AEE48C2021
S12362C0301026FCA7108E20201F2016FCA2EC641083B3FF1023FCA7EC64C34C00ED64ECD9
S12362E062C93B89FBED628E3830108E3A3010AFE4EC62108301311022FCB11083013110F9
S12363002702DAAFE4AE628C00981022FCB68C00981026FCC5EC641083967F1023FCBB16B8
S1236320FCA210AE64108C11FF1023FCC5EC64C3EE00ED64EC62C98589FFED62ECE4C300A1
S123634008EDE4AE628C001E1022FCCE8C001E1026FCDDEC641083847F1023FCD316FCBA3D
S1236360EC64108334FF1023FCEEEC64C3CB00ED64EC62C9F389FFED628E3830108E3A30D8
S123638010AFE4EC62108300031022FCF8108300031027022EAFE4AE628C00011022FCFDF4
S12363A08C00011026FD0CEC641083869F1023FD0216FCE910AE64108C387F1023FD0CEC3B
S12363C064C3C780ED64EC62C9FE89FFED62ECE4C30008EDE4AE621026FD1210AE64108C8F
S12363E04E1F1023FD1D16FD04EC64C3FFF6ED64EC62C9FF89FFED6230890100E666C101BA
S12364001026FE188C30301026FE118E203016FE0BEC64C3FFECED64EC62C9FF89FFED62C2
S123642016FDE0EC64C3FF9CED64EC62C9FF89FFED62ECE4C30001EDE4E666C1011026FDD3
S123644084AEE48C20301026FD7B108E202010AFE41F2016FD73EC64C3FF38ED64EC62C9A0
S1236460FF89FFED62ECE4C30002EDE416FD3DEC64C3FC18ED64EC62C9FF89FFED62ECE457
S1236480C30100EDE4E666C1011026FCE9AEE48C30301026FCE0108E203010AFE416FCD82F
S12364A0EC64C3F830ED64EC62C9FF89FFED6216FCABEC64C3D8F0ED64EC62C9FF89FFEDEB
S12364C062ECE4C30001EDE4E666C1011026FC4CAEE48C20301026FC43108E20201F20164F
S12364E0FC3EEC641083423F1023FB51EC64C3BDC0ED64EC62C9F089FFED62ECE4C3000128
S1236500EDE4E666C1011026FB3BAEE48C20301026FB32108E20201F2016FB2D10AE6410CE
S12365208C93FF1023F9D3EC64C36C00ED64EC62C9CA8988ED628E3230AFE48E333016F9A6
S1236540C1108300061027010B8E3030CC3230EDE416FE2F8C003D1026FDE8EC641083089B
S1236560FF1023FDDE16FA9310830262102700D68E3030CC3230EDE416FD768C17D710263D
S1236580F9C2EC64108383FF1023F9B816FCD1AEE48C30301026FB23108E203010AFE41697
S12365A0FB1BAEE48C30301026FA37108E203010AFE416FA2F10AE64108C9C3F1023FE152D
S12365C016FB0EEC6410830D3F1022FAB816FDC5EC641083C1FF1023F97A16FCA2EC641050
S12365E0832CFF1022F9C516FD19EC64108307FF1023FC6316F937EC641083E0FF1023F91E
S12366006316FC9A108C00272258CC30308E323016FBDC108C0F9F22618E3030108E323066
S123662010AFE416FB248C018F1023FB6EEC64C3FE70ED64EC62C9FF89FFED62ECE4C30074
S123664004EDE416FB5510AE64108C59FF1022F93816FF1C10AE64108C1A7F1022FA0316B5
S1236660FEE7EC64C3FFD8ED64EC62C9FF89FFED62CC34308E363016FB75EC64C3F060ED0F
S123668064EC62C9FF89FFED628E3430108E363010AFE416FAB48EC8B37E5EDE327CAE66C3
S12366A0AFE4AE68AF628EC8B3BD5EDE32648EC8B37E5A9134603277AF64AE6FAFE4ECE83E
S12366C011ED628EC8B3BD5EDE8EC8B3BD5A91EE64E6C0E7683264108EC8BFC125272CCE9A
S12366E000002002EE62E664E7C9C8BF3041AF623189C8BFECE430CBE601E7641F30C300D1
S123670002AEE4338BE664C12526D9F6C8B327098EC8B4E7A0E68026FAE6C427083041E70B
S1236720A0E68026FAC680E7A4326535E0327CF6CA63E7E4C681E0E4E761E6E45CE762F75D
S1236740CA63C649E0E4E861E862E763F7CA64E0E4CBD3F7CA6554EB61E863F7CA66326403
S123676039C60CF7CA63CB38F7CA64C60CF7CA65C638F7CA667FC9C27FC9C1C690F7C9C0B8
S12367803934603277AF62BD5AB1AF64AE623001AFE4301FE680E768108EC8BFC125272E5B
S12367A0CE00002002EE66E668E7C9C8BF3041AF663189C8BFEC6230CBE601E7681F30C3B4
S12367C00002AE62308BAFE4E668C12526D7AE64E68427083001E7A0E68026FAEEE4E6C4BF
S12367E027083041E7A0E68026FAC680E7A48EC8BF326935E034603277AF62BD6869AF6463
S1236800AE623001AFE4301FE680E768108EC8BFC125272ECE00002002EE66E668E7C9C832
S1236820BF3041AF663189C8BFEC6230CBE601E7681F30C30002AE62308BAFE4E668C125A9
S123684026D7AE64E68427083001E7A0E68026FAEEE4E6C427083041E7A0E68026FAC680DF
S1236860E7A48EC8BF326935E0327DE7E4102D008F6F61E6E4C1632F57CB9CE7E48E313019
S12368806F62C1132F06CBECE7E43002C1092F55CBF6E7E43001BFC8ADE6E4CB30F7C8AFF4
S12368A07FC8B08EC8ADBD5A91F6C8B0F7C8B1F6C8AFF7C8B0F6C8AEF7C8AFF6C8ADF7C874
S12368C0AE6D612630C62BF7C8AD8EC8AD326339C14F2F35CBB0E7E48E2038C601E762E61E
S12368E0E4C1092EAB8C203026ACE662C10126A68E202020A1C62DF7C8AD8EC8AD326339CA
S123690060E4C601E76116FF6A8E2030C601E762E6E4C127102FFF6ACBD8E7E48E2034C643
S123692001E762E6E416FF5A3420108EC8AD3420C601BD5C37326230A435207E5A91346044
S12369403277AF643001AF62301FE680E768108EC8BFC125272ECE00002002EE66E668E758
S1236960C9C8BF3041AF663189C8BFEC6430CBE601E7681F30C30002AE64308BAF62E6683B
S1236980C12526D7AE6FE68427083001E7A0E68026FAEE62E6C0C1252708E7A0E6C0C125FE
S12369A026F8AEE811E68427123001AFE4E7A0AEE43001AFE4301FE68026F2E6C4270830F4
S12369C041E7A0E68026FAC680E7A4326935E034603279AF62BD5AB18EC8A9BD5A91EE62D5
S12369E0E6C0E7668EC8BFAF64C125272CCE0000200233A4E666E7C9C8BF314130A9C8BF23
S1236A00AF64EC6230CBE601E7661F30C30002AE62338BE666C12526D9AE64F6C8A9E780EF
S1236A20F6C8AA2702E780F6C8AB2702E78031C4E6A0C1252708E780E6A0C12526F8EE6D85
S1236A40E6C427123341EFE4E780EEE43341EFE4335FE6C026F2E6A427083321E780E6C01E
S1236A6026FAC680E784326735E034603279AF62BD5AB18EC8A9BD5A91AE623001AFE430D0
