S123001CCE009833C97AC733C9000033C90000108EC8808E00002717A6C0A7A0301F26F859
S11E003C108EC8808E027827066FA0301F26FABD32D75D2F037FCBFE7EF00001
S11F00006720474345203139383280FD0DF850F0B854454C454E47415244800006
S10600577E00988C
S123006E86DF9702860197008E005A58AE85AD84869F970239869F97028E005A58AE85ADD9
S10D008E8486DF970286019700398B
S117005A71CB3DAC68360001000100010001000100010001C4
S10B0098C9D8CA00CA28CA50E5
S12300A0474E4F4C4C004B4F424F4C4400534B454C45544F4E00484F42424954005A4F4DF2
S12300C0424945004F52430046494748544552004D554D4D5900454C460047484F554C0074
S12300E044574152460054524F4C4C00575241495448004F475245004D494E4F5441555290
S1230100004749414E5400535045435445520056414D504952450044454D4F4E00445241F4
S1230120474F4E0000A000A600AD00B600BD00C400C800D000D600DA00E000E600EC00F3C0
S123014000F801010107010F0117011D53545200494E540057495300434F4E0044455800BB
S123016043485200014C015001540158015C016053574F52440041524D4F52005348494C54
S1230180454400454C56454E20434C4F414B00454C56454E20424F4F54530052494E47205D
S12301A04F4620524547454E45524154494F4E0052494E47204F462050524F544543544994
S12301C04F4E005343524F4C4C204F462052455343554500504F54494F4E204F46204845D8
S12301E0414C494E4700504F54494F4E204F4620535452454E4754480001700176017C010D
S123020083018F019B01B001C301D401E64D41474943204D495353494C458000534C4545BA
S123022050800043555245204C4947485420574F554E445380004C494748548000545552B0
S12302404E20554E44454144800050524F542F4556494C8000020D021C02230236023D020C
S12302604A57454280004C4556495441544580004341555345204C4947485420574F554E82
S1230280445380004445544543542054524150538000434841524D8000535452454E47544E
S12302A04880000261026602700284029202994C494748544E494E4720424F4C54800043C8
S12302C055524520534552494F555320574F554E44538000434F4E54494E55414C204C4902
S12302E04748548000494E5649534942494C4954598000484F4C44204D4F4E535445528089
S1230300005048414E5441534D414C20464F52434553800002AF02BF02D402E502F3030166
S1230320504153532057414C4C80004649524542414C4C8000434155534520534552494FDE
S1230340555320574F554E44538000464C45534820544F2053544F4E458000464541528075
S12303600046494E474552204F4620444541544880000320032B0335034B035B03615445D1
S12303804C45504F5254800041535452414C2057414C4B8000504F57455220574F52442064
S12303A04B494C4C80004943452053544F524D800057414C4C204F4620464952458000508C
S12303C04C414755458000037E0388039503A603B103BF54494D452053544F5080005241C0
S12303E049534520444541448000484F4C592053594D424F4C8000574F5244204F46205255
S12304004543414C4C8000524553544F524154494F4E8000505249534D41544943205741B9
S12304204C4C800003D303DE03EA03F704070414025502A30314037203C704245245465533
S123044053450053494C56455200474F4C440047454D53004A4557454C5300043C04430484
S12304604A044F0454574849544500475245454E00434C4541520052454400424C41434BF2
S1230480000465046B04710477047B5245448000475245454E800059454C4C4F5780004227
S12304A04C55458000048B04900497049F4E4F4E45005354414952005049540054454C45A7
S12304C0504F525400414C54415200464F554E5441494E0043554245005448524F4E45000C
S12304E0424F580004AD04B204B804BC04B204C504CB04D404D904E03277E761C6FAF7C8D5
S1230500A86D61102600856F676F64160067F6C811E766C5082708C601E767C604E764C678
S123052004E4662708C601E767C603E764C602E4662708C601E767C602E764C601E4662770
S123054006C601E767E764F6C81BE7682708C601E767C605E764F6C81CE7E42708C601E72D
S123056067C605E7646D67270C6D6826086DE426046D66270ABD3DAC7DC8A81026FF8F6DAD
S1230580642704E664E761E6613269396F636F64160069F6C811E765C5082708C601E763CF
S12305A0C604E764C604E4652708C601E763C603E764C602E4652708C601E763C602E76457
S12305C0C601E4652706C601E763E764F6C81BE7622708C601E763C605E764F6C81CE7E461
S12305E02708C601E763C605E7646D63270E6D62260A6DE426066D651027FF83BD3DAC7A75
S1230600C8A8F6C8A85D1026FF8916FF723279E7617FC811C6FAF7C8A86D611026008D6FEC
S1230620632026F6C81CE7E42F04C605E7636DE4102D005F6D65260E6D66260A6DE42606AD
S12306406D6310260056BD3DAC7DC8A81027004AF6C811E765C5082704C604E763C604E451
S1230660652704C603E763C602E4652704C602E763C601E4652704C601E763F6C81BE76613
S12306802F04C608E7636D66102CFF97C607E76316FF90C606E76316FF9A6F637FC8116D4E
S12306A0632704E663E761E6613267396F632026F6C81CE7E42F04C605E7636DE4102D006B
S12306C0636D64260E6D62260A6DE426066D631026FFC9BD3DAC7AC8A8F6C8A85D1027FFDB
S12306E0B9F6C811E764C5082704C604E763C604E4642704C603E763C602E4642704C602C4
S1230700E763C601E4642704C601E763F6C81BE7622F04C608E7636D62102CFF93C607E782
S12307206316FF8CC606E76316FF96454E544552204E554D4245523A800028204D41583A67
S1230740202520290028204D494E3A2025202900205E208000346032E8D6AFE817BD71860F
S1230760E7E81F64E81F108EC8B334205FAEE832BD5D403262E6A4C120102703E1F6C8B4A2
S1230780C120102703F8F6C8B5C120102703E7F6C8B6C120102703D6F6C8B7C120102703D8
S12307A0C5C680F7C8B8AEE8328C270F1022039DC603E7E81ECEC8B48E0003AFE821ECE83A
S12307C032108303E7220D3341C602E7E81E8E0002AFE821ECE83210830063220D3341C661
S12307E001E7E81E8E0001AFE821ECE83210830009220B33416FE81E8E0000AFE8217FC87B
S1230800FEECE82130CBAFE823ECE832ED63AEE830AF65E6E81F860C3DEDE450E7E8196FC8
S1230820E820160054108EC8AD34205FAEE834BD5D4034208EC8B3BD5B603264ECE81A10EF
S1230840830000102402B6108EC8AD34205FAEE832BD5D4034208EC8B3BD5B603264C6010B
S1230860E7E8207DC81B260AF6C81C2702C601E7E8207DC811102602CCBD72E2BDF1F8BD6E
S1230880F1BABDF192BDF2A5C67FD704AEE8172713C660E7E2AEE818E6E81ABD597EC6CC63
S12308A0D70C3261C620E7E28E072BC6B0BD597EC6CCD70CF6C82BF7C8FFC63FF7C82BAE8C
S12308C0E83334108E073ABD6E6CC610E7E28EC8BFC6B8BD597EC6CCD70CAEE83434108E78
S12308E00745BD6E6C6FE28EC8BFC6B8BD597EC6CCD70CC67FF7C82BC6E0E7E230C4C6D0FC
S1230900BD597EC6CCD70C3268E6E81EF0C8FE5C86123DCBADE7E4C6D5E7E28E0750E6618A
S1230920BD597EC6CCD70CF6C8FFF7C82BF6C81BE76332615D2F116DE820260CF6C8FEE766
S1230940E8252F045AF7C8FE6D62102D01C47DC81C2F166DE8202611F6C8FE1D1F01ECE84C
S1230960213410A3E130CB6C847DC81C102D01BAF6C8FE1D1F01ECE8213410A3E130CBE6AF
S123098084C1392304C630E784F6C8FE1D1F01ECE8213410A3E130CBE684C12F2204C6391D
S12309A0E784AEE823E684CBD04FEDE81CCC0000EDE81AAEE8328C0009234BECE82130CB54
S12309C0E61FCBD04F1F013278CC0000ED64CC000AED66CC0000EDE4AF6230E82EBD794C9E
S12309E03268AEE826AFE813ECE828EDE815ECE81CE3E815EDE81CECE81AE9E814A9E813D5
S1230A00EDE81AAEE8328C00632349ECE82130CBE61ECBD04F1F013278CC0000ED64CC002F
S1230A2064ED66CC0000EDE4AF6230E82EBD794C3268AEE826AF6FECE828EDE811ECE81C3F
S1230A40E3E811EDE81CECE81AE9E810A96FEDE81AAEE8328C03E72344ECE82130CBE61D57
S1230A60CBD04F1F023278CC0000ED648E03E8AF66EDE410AF6230E82EBD794C3268ECE8EA
S1230A8026ED6BAEE828AF6DECE81CE36DEDE81CECE81AE96CA96BEDE81AAEE8328C270FF9
S1230AA02341ECE82130CBE61CCBD04F1F023278CC0000ED648E2710AF66EDE410AF62300E
S1230AC0E82EBD794C3268ECE826ED67AEE828AF69ECE81CE369EDE81CECE81AE968A96740
S1230AE0EDE81AAEE81A8C00001022FD381026FD4BAEE81CAC631023FD4216FD28108300E1
S1230B00001026FD59ECE81C10A3651024FD4F16FD356DE8201026FE35F6C8FEE1E81E10E4
S1230B202CFE2B5CF7C8FE16FE246DE8201026FE3FF6C8FE1D1F01ECE8213410A3E130CB72
S1230B406A8416FE2BAEE81C32E82A35E0C604E7E81ECEC8B38E0004AFE82116FC60C630A7
S1230B60F7C8B316FC17C630F7C8B716FC33C630F7C8B616FC22C630F7C8B516FC11C63003
S1230B80F7C8B416FC00594F552048415645204E4F54204245454E204E4F54494345442EEC
S1230BA02E2E003C343E20544F20415050524F4143483A00594F5520454E434F554E54453E
S1230BC0522041204C564C202520250025204C494B455320594F555220424F4459004845BF
S1230BE0204845414C5320594F5520544F2046554C4C20535452454E4754480025204D41CF
S1230C004B4553204120515549434B204D4F564500594F552048415645204E4F5448494E67
S1230C20472048452057414E545300544F20535445414C2100484520535445414C532059C0
S1230C404F5552202500484520535445414C5320412025005448452025204C494B45532058
S1230C60594F552100484520474956455320594F55204120252B250046494748542834291D
S1230C802C20434153542833292C204556414445283129005741495400455641444500592F
S1230CA04F5527524520524F4F54454420544F205448452053504F54004E4F5254480053D9
S1230CC04F5554480057455354004541535400464947485400594F55204D49535345442EDE
S1230CE02E2E00594F5520444F202520504F494E54532044414D4147450049542044494554
S1230D00442E2E2E00594F55204741494E202520455850455249454E434520504F494E54CE
S1230D2053004954204D49535345442E2E2E00495420444F4553202520504F494E54532006
S1230D4044414D41474500495420445241494E532041204C4556454C21212100594F5520F9
S1230D6041524520504152414C495A4544212121004954205553455320495427532053577A
S1230D804F52442121210049542055534553204954275320574849502121005448452044F4
S1230DA05241474F4E2042524541544853204649524521212100594F552050415254494108
S1230DC04C4C5920444F44474520495400594F55204255524E20464F52202520504F494EE8
S1230DE054532044414D414745005448452025204953204E4F5420414D5553454400344043
S1230E0032E8ECC11E10270327C11F1026018C7FC97EF6C977C1022718C1042714C10727F8
S1230E2010C109270CC10C2708C1102704C1112605C601F7C97E7DC9732709F6C97EC101BF
S1230E40102705F87FC987F6C9771DEDE458491F01AE890124AFE3F6C97F8E0BB4BD6AD82E
S1230E608EC8BFBD5B7AF6C97FF7C9807FC8FEC664BD5F2A3262C15E1022039AF6C977C11B
S1230E8008102706A0C1031027070DF6C977C11310270718F6C8FEE76DC1011027046BC1C1
S1230EA0021027049BC103102703A4C664BD5F2AE76FF6C949CB1958E16F102500BE16044D
S1230EC033C11010270202C1111027023EC10910270255C11210270350C113102703FDC600
S1230EE014BD5F2AE7E811F6C97D4FEDE4B3C94FB3C94D1F01E6E811FBC97F4F1F03308B56
S1230F00BFC902F6C977CBF0C10110230171BEC9028C0009102F0514C608BD5F2AE7E81280
S1230F20F6C97F58BD5F2AEBE8125CB6C97A3DFDC9024F34068E0D2FBD5F6F8EC8BFBD5B87
S1230F407A3262FCC963B3C902FDC96310830000102F04E1C64BBD3E21C60ABD5F2AF1C9FC
S1230F607C24077DC96F10260167C60ABD5F2AF1C97B1024007C8E0D5CBD5B7AC601F7C968
S1230F807A7FC97B7FC97C7FC97DF6C977C10C1026FF2EC601F7C97C16FF44C664BD5F2A55
S1230FA0C11E102200367DC97426317DC9712623C614BD5F2AF7C9777DC9722704C1042FA7
S1230FC0EFC614BD5F2A5C4F10B3C9511023068F16015DC664BD5F2AC11423D4C603E769E5
S1230FE0E66932E81435C07FC987BD39C55D102607697FC9878E0C78BD5B7AC6FAF7C8A854
S12310007FC8FF1600507DC81C2F05C605F7C8FF7DC81C102D0060F6C811C5082708C6046F
S1231020F7C8FFF6C811C5042708C603F7C8FFF6C811C5022708C602F7C8FFF6C811C501C0
S12310402705C601F7C8FF7DC81126077DC8FF1026003B7AC8A8BD3DAC7DC8A827307DC88A
S12310601B2F05C605F7C8FF7DC81B102CFF97C605F7C8FF16FF8FC605F7C8FF16FF987D82
S1231080C96F1027FE88301ABFC90216FE80C601F7C97A7FC97B7FC97C7FC97DF6C8FFC124
S12310A0041023006E7FC987F6C9771DEDE458491F01AE890124AFE38E0DEABD5C598EC898
S12310C0BFBD5B7A326216FF29C602F7C97C16FE0E8E0D47BD5B7AFCC9391F985F4646842B
S12310E08074C93B76C93CBEC93B3410AAE0EAE0FDC93B74C93976C93ABD53F8BEC963102D
S12311002705A0C64BBD3E2116FE5FC603F7C97C16FDCC4FEDE458491F016E99111E11E370
S123112011EF0FE711A61163C605F7C97B16FDAFF6C9675CBD5F2AE76AC603BD5F2AA66A8A
S12311403D1F015CE76BF7C97FBD5F2AE06B50F7C97FB6C9773DBD5F2A4FC30001FDC97857
S123116016FCAC7FC9878E0CCFBD5B7AC614BD5F2AE7E810F6C945544FFEC94B30CBE6E862
S123118010FBC9384FEDE4308BBFC9027DC96C27053004BFC9028C0009102E02BE8E0CD53C
S12311A0BD5B7A16FDD6C601BD4690E762F7C8FFC1011027FDC6C1021027FE36C10310276A
S12311C002ECC10410270377C105102702E6C1061027FE08C602E769E662C1071027FE0061
S12311E016FDFF7FC9878E0C94BD5B7A16FE037FC9878E0C99BD5B7AC612BD5F2A5CF7C866
S1231200FEF1C949102503378E0C9FBD5B7AC632BD3E2116FD66C65BBD5F2AC11D1022008B
S1231220DBC601F7C8FE16FC6BC60ABD5F2AC106102302168E0D71BD5B7AC604F7C97DC63B
S123124003F7C97AC64BBD3E217FC98716FC90C607BD5F2AF7C8FE1D58491F01AE89C94BB6
S1231260F6C97F4F1F033406ACE11024FC3D3410A3E1BD5F2AE76EF6C8FE1D58491F016C1E
S12312806EE66E4FE389C94BED89C94BF6C9771DEDE458491F01AE890124AFE38E0C54BDB1
S12312A05C598EC8BFBD5B7AF6C8FE1DED6258491F01EE89C94BEFE3AE8901F9AFE38E0C2B
S12312C065BD6EDC8EC8BFBD5B7A7FC8FEC64BBD3E21E6E813E76F326616FD04C60ABD5FB3
S12312E02AC10310230332C605F7C97DC602F7C97A16FBEBC64BBD3E2116FCF6C13B10222B
S123130002BEC602F7C8FE16FB8AF6C9771DEDE458491F01AE890124AFE38E0BCCBD5C593F
S12313208EC8BFBD5B7A8E0BDEBD5B7AC64BBD3E21BEC936BFC963C603E76B326216FCA0C3
S1231340F6C9771DEDE458491F01AE890124AFE38E0BFCBD5C598EC8BFBD5B7AC64BBD3EFC
S123136021C6FFF7C8FE3262BEC94B102603E0C601BEC94D10260325BEC94F102603D4C6A5
S123138003BEC95110260315C604BEC9531026030CC605BEC95510260303C606BEC957109A
S12313A02602FAC607BEC959102602F1C608BEC95B102602E8BEC95D102602DFF6C8FEC1E9
S12313C0FF1027033EC6FFF7C8FEC60ABD5F2AF7C8FE1D58491F01AE89C94B2605C6FFF72D
S12313E0C8FEF6C8FEC1FF27E1C106102F01D91D58491F01AE8901F9AFE38E0C46BD5C59CC
S12314008EC8BFBD5B7AF6C8FE1DED6258491F01EC89C94BC3FFFFED89C94B32627FC8FE8B
S1231420C64BBD3E21C603E76916FBB48E0D22BD5B7A16FBBDC602E76916FBA4C664BD5F6D
S12314402AC1131023FB6916F9FA8E0D87BD5B7AC602F7C97DF7C97A16FDE9C608BD5F2AE7
S12314604FFDC902F6C93858BD5F2AFEC90230411E01F3C94B1E013ABFC9027DC96C27059B
S12314803005BFC902F6C9038E0CE3BD5CC68EC8BFBD5B7AF6C9034F1F03BEC9781F10342F
S12314A040A3E1FDC97810830000102CFCF58E0CFABD5B7AC64BBD3E217FC987F6C97F8680
S12314C00A3DED67F6C9775CE7E4E668A6E43DEDE44F1F03FDC902ED65CC0000ED63FCC9BE
S12314E03BE365FDC93BFCC939E964A963FDC93934408E0D05BD5F6F8EC8BFBD5B7ABD53B8
S1231500F8C64BBD3E21C664BD5F2AE764F7C8FE3262C604E769E662C132102EFAC2C6037E
S1231520E76916FABBC664BD5F2AE76CF6C94A5858E16C1024F95DC601F7C8FE16F955C68B
S123154004BD5F2AF7C8FEC1011027017B102F00A4C102102701538EC880C10310270120E8
S12315608EC880E60BE7E813C603E4E813C10310270174C601F7C8FC8E0CB9BD5B7A7AC9FC
S123158040F6C97FE7E2BEC978F6C977BD3E63C601E76A326116FA48C614BD5F2AF1C94A46
S12315A01023F8E7C602F7C8FE16F8E8C61EBD5F2AF1C94A1024F8DCC603F7C8FE16F8D4FC
S12315C0C603F7C8FE16F8CC1D58491F01AE8901F9AFE38E0C35BD5C598EC8BFBD5B7AF628
S12315E0C8FE1DED6258491F01CC0000ED89C94B326216FE285D1026FF668EC880F6C88BB7
S1231600C403C1031027012AC601F7C8FC8E0CB9BD5B7A7AC94016FF688E0D9BBD5B7AC6E4
S123162001F7C8A5C64BBD3E217FC8A57FC987C614BD5F2AB6C97F3D5C4FFDC902C614BDF4
S12316405F2AF1C948102500D2BEC902AFE38E0DCDBD5F6F8EC8BFBD5B7A326216F8E47F3A
S1231660C9878E0B86BD5B7A8E0BA3BD5B7AC601BD04F8C1041027F957C603E76916F96043
S1231680E60DC40CC10C1027FED9C603F7C8FC8E0CCABD5B7A7CC93F16FEE6C609F7C8FE24
S12316A016FD19C602E76916F9368EC880E60BC40CC10C1027FFC9C604F7C8FC8E0CC5BD99
S12316C05B7A7AC93F16FEB98EC880E68813C403C10310270059C602F7C8FC8E0CBFBD5B7C
S12316E07A7CC94016FE9AE68813C403C10310270043C602F7C8FC8E0CBFBD5B7A7CC940C0
S123170016FE7E8E0C11BD5B7A8E0C2BBD5B7AC64BBD3E21C603E76916F8C5FCC902475622
S1231720C30001FDC9028E0DB6BD5B7A16FF1A16FF7B16FF96C60CE4E813C10C271AC60443
S1231740F7C8FC8E0CC5BD5B7A7AC93F16FE325F16FF4AE66D16FF4516FAADC601E76916BC
S1231760F87E4E4F00F6C98126077DC9821027003E7DC81B102600337DC81C1026002C7F9D
S1231780C9875D102F0036F6C88DC40CC10C26077DC973102700517CC93FC603F7C8FC8E37
S12317A00CCABD5B7A7FC9817FC982F6C8FC39F6C81BF7C981F6C81CF7C9825F395D2631B5
S12317C0F6C982102F004BF6C88BC403C10326077DC9731027005F7AC940C601F7C8FC8E57
S12317E00CB9BD5B7A16FFBD8E1762BD5B7A16FFB4F6C88BC40CC10C26077DC97310270057
S12318003E7AC93FC604F7C8FC8E0CC5BD5B7A16FF935D1027FF8EF6C893C403C1032605BE
S12318207DC97327237CC940C602F7C8FC8E0CBFBD5B7A16FF6F8E1762BD5B7A16FF668E88
S12318401762BD5B7A16FF5D8E1762BD5B7A16FF54594F552053454520534F4D4520252052
S12318603C343E20544F205049434B20555000594F55204445544543542054524150532146
S123188000594F55204C4541564520495400534E4152462049540049542753205452415058
S12318A05045442100594F5520535546464552202520504F494E54532044414D4147450041
S12318C04954275320574F525448202520474F4C4400594F55204841564520464F554E44D1
S12318E020412054524541535552452043484553542121003C343E20544F204F50454E203C
S123190049543A200049474E4F5245204954004F50454E20495400434845535420455850D8
S12319204C4F444553212100494E534944452C205448455245204953204F4E4C5920434F9A
S123194042574542532E2E2E00594F552053454520412025202B25003C343E20544F205095
S123196049434B2049542055503A004C454156452049540049542049532043555253454467
S1231980212100594F552053554646455220252044414D41474520504F494E54530049547B
S12319A0275320594F5552532100346032E8D7E76B7FC9875D1027017EC6056D6B2605320D
S12319C0E82935E0C664BD5F2A6FE812C10E102302A3C664BD5F2AC11E1022016CC664BD88
S12319E05F2AC131102303846FE8137FC987C60ABD5F2AE7E820F6C9805C5454BD5F2AE700
S1231A00E810F6C9805C5454BD5F2AE762E6E8104F1F01E6624F1F031E0133CB314134200F
S1231A20E6E8224FED6258491F01AE8901F9AFE38E1949BD6EDC8EC8BFBD5B7A8E1958BD36
S1231A405B7AC6FAF7C8A86FE81E6FE81C326416007BF6C811E7E81BC508270AC601E7E82A
S1231A601AC604E7E818C604E4E81B270AC601E7E81AC603E7E818C602E4E81B270AC601AE
S1231A80E7E81AC602E7E818C601E4E81B2708C601E7E81AE7E818F6C81BE7E819270AC67E
S1231AA001E7E81AC605E7E818F6C81CE762270AC601E7E81AC605E7E8186DE81A270E6DBF
S1231AC0E81926096D6226056DE81B270EBD3DAC7AC8A8F6C8A85D1026FF776DE818102790
S1231AE0024DE6E818C104102602446DE81227076DE820102603DE8E199EBD5B7AE6E82086
S1231B004FEDE45849CEC94B30CBEC84C30001ED84E6E820C106220310AF84C64BBD3E2134
S1231B20E6E813C1011026023EC664BD5F2AC1321023023316FEB4C632BD5F2AC12810239B
S1231B40FE77C601E76B16FE70C605BD5F2AE7E811F7C8F54FEDE458491F01AE89045BAFA4
S1231B60E38E1851BD5C598EC8BFBD5B7A32627DC96D27076DE81210260347C6FAF7C8A8EB
S1231B806FE8166FE81416007BF6C811E7E817C508270AC601E7E816C604E7E814C604E41E
S1231BA0E817270AC601E7E816C603E7E814C602E4E817270AC601E7E816C602E7E814C6A0
S1231BC001E4E8172708C601E7E816E7E814F6C81BE7E815270AC601E7E816C605E7E81417
S1231BE0F6C81CE762270AC601E7E816C605E7E8146DE816270E6DE81526096D6226056D93
S1231C00E817270EBD3DAC7AC8A8F6C8A85D1026FF776DE81410270134E6E814C1041026DB
S1231C20012B7FC9878E188EBD5B7A6DE8121027004BF6C98058FBC980BD5F2A5CF7C8FDBD
S1231C408E1897BD5B7AF6C8FD8E18A5BD5CC68EC8BFBD5B7AF6C8FD4F1F01FCC96334108F
S1231C60A3E1FDC963108300002E12C64BBD3E21C60216FD4AC601E7E81216FD55C6C8BD33
S1231C805F2A4F1F02CC0000FDC90410BFC906E6E8114F1F01F6C9804F1F033278CC00009F
S1231CA0ED64EF66EDE4AF6230E82DBD794CCC0000ED6410AF66AEE82DAFE4EEE82FEF62E3
S1231CC030E829BD794C3264ECE825ED6BAEE827AF6DEC6DC30001EDE812EC6BC9008900D0
S1231CE0EDE810AEE810BFC904EEE812FFC906FCC96AE3E812FDC96AFCC968E9E811A9E837
S1231D0010FDC968AFE4EEE812EF628E18C0BD67BD8EC8BFBD5B7AC632BD5F2A3264C10929
S1231D201022008DC64BBD3E216FE81316FCBC8E196BBD5B7AC64BBD3E21E6E813C10126E1
S1231D4021C664BD5F2AC132231816FC9E7FC9878E1881BD5B7AC64BBD3E21C60532E8294D
S1231D6035E0C60516FC58C60616FC53C605F7C8F58E18D2BD5B7A8E18F4BD5B7A7DC96D7C
S1231D8027136DE812270EC60ABD5F2A5D26068E186FBD5B7AC601BD04F8C104271D7FC952
S1231DA0878E1905BD5B7AC64BBD3E21C60516FC0EC64BBD3E21C60616FC047FC9878E19BD
S1231DC00FBD5B7A6DE81210270039C60ABD5F2AB6C9673DC30001FDC9028E1917BD5B7A72
S1231DE0BEC902AFE38E18A5BD5F6F8EC8BFBD5B7AFCC963B3C902FDC96332621083000051
S1231E00102F0139C60ABD5F2A5D10270115C664BD5F2A4F1F02CC0000FDC90410BFC90671
S1231E20F6C9804F1F013278CC0000ED64CC000AED66CC0000EDE4AF6230E82DBD794CCCBF
S1231E400000ED6410AF66AEE82DAFE4EEE82FEF6230E829BD794C3264ECE825ED67AEE820
S1231E6027AF69EC69C30001EDE822EC67C9008900EDE820AEE820BFC904EEE822FFC9066D
S1231E80FCC96AE3E822FDC96AFCC968E9E821A9E820FDC968AFE4EEE822EF628E18C0BDF5
S1231EA067BD8EC8BFBD5B7AC64BBD3E21C664BD5F2A3264C13110230064C601E7E81316D8
S1231EC0FB29C60ABD5F2A5D1026FCAF8E186FBD5B7A16FCA68E1974BD5B7AC64BBD3E214D
S1231EE07FC987E6E8205858EBE820BD5F2A5CF7C8FD8E1983BD5CC68EC8BFBD5B7AF6C8B2
S1231F00FD4F1F01FCC9633410A3E1FDC963108300002F1FC64BBD3E21C60616FAA1C606E1
S1231F2016FA9C8E1928BD5B7AC64BBD3E21C60616FA8CC64BBD3E21C60216FA82C64BBDA6
S1231F403E21C60216FA785245454E54455200594F55204645454C20484541565920464F2E
S1231F60522041204D4F4D454E5400594F552053454520412050495400594F55204152455D
S1231F8020484F564552494E472041424F564520412050495400444F20594F552057414E0A
S1231FA05420544F2044455343454E443F203C343E205945530059455300594F552046413D
S1231FC04C4C20494E212100594F552053554646455220252048495420504F494E5453003D
S1231FE05A5A4150212120594F55275645204245454E2054454C45504F525445442E2E2E9B
S123200000594F55204841564520464F554E4420412043495243554C415220535441495266
S123202057415900594F5520534545204C494748542041424F564500444F20594F55205765
S1232040414E5420544F203C313E20474F2055502C203C343E20474F20444F574E00444FF5
S123206020594F552057414E5420544F203C313E20474F20555000444F20594F5520574174
S12320804E5420544F203C343E20474F20444F574E004F522053544159204F4E205448453B
S12320A02053414D45204C4556454C3F00444F574E005550005354415900594F552048413B
S12320C0564520464F554E44204120484F4C5920414C544152005052455353203C343E20F9
S12320E0544F20574F5253484950005052455353203C343E20544F20444F4E415445204D87
S12321004F4E455900484F57204D55434820474F4C443F8000594F5520444F4E275420485F
S12321204156452054484154204D5543482100594F552048415645204245454E2048454197
S12321405244005448414E4B20594F5520464F5220594F555220444F4E4154494F4E00441C
S12321604952545920504147414E2054524153482100594F55204841564520464F554E44EC
S1232180204120464F554E5441494E00574954482052554E4E494E472025205741544552F1
S12321A0005052455353203C343E20544F204452494E4B00594F55204645454C2042455431
S12321C054455200594F55204845414C20252048495420504F494E5453004954275320500B
S12321E04F49534F4E21212100594F55204C4F534520252048495420504F494E5453005900
S12322004F55204645454C20524546524553484544210041435455414C4C5920594F55275E
S12322205245204452554E4B212100594F552048415645204245454E20444953504F53456B
S12322405353454421004D4147494320504F57455220535552474553205448524F554748E2
S123226020594F555220424F445900594F55204E4F5720484156452025205350454C4C5310
S123228000594F552043414E205345452041204C41524745204D495354592043554245006D
S12322A03C343E20544F2057414C4B20494E0049474E4F52450041204E554D42455220464F
S12322C0524F4D203120544F2035308000594F5520464C4F415420494E20535041434520FD
S12322E02E2E2E00594F55205345452041204A4557454C20454E43525553544544205448D5
S1232300524F4E4500444F20594F552057414E5420544F205052593C343E20534F4D45207B
S12323204A4557454C532C005349543C333E20444F574E2C20524541443C323E2054484599
S12323402052554E4553004F522049474E4F52453C313E2049543F00505259004E4F54486C
S1232360494E472048415050454E53005448455920504F5020494E544F20594F55522047D3
S123238052454544592048414E4453212100544845592041524520574F5254202520474F57
S12323A04C4400534954005448452025204B494E472052455455524E530041204C4F554442
S12323C020474F4E4720534F554E445321005245414400594F5520444F4E275420554E44F5
S12323E045525354414E44205448454D2E2E2E0041204D5953544552494F5553204D414776
S1232400494720475249505320594F552E2E00594F55202520474F455320444F574E2042C0
S123242059203100594F55202520474F4553205550204259203100594F5520534545204132
S123244020534D414C4C20424F58205749544820464F555220434F4C4F524544004C49471A
S12324604854532E20505553483C343E20425554544F4E53204F522049474E4F52453A00FF
S123248050555348202855502F444F574E2F4C4546542F524947485429003C553E524544CA
S12324A02C203C443E475245454E2C203C4C3E59454C4C4F572C203C523E424C554500422D
S12324C05554544F4E20544F2053544F500053544F5000414E20454C454354524943204293
S12324E04F4C542053484F4F5453205448524F55474820594F552121004954204F50454E5A
S123250053212100494E5349444520594F552046494E44204A4557454C5320574F5254486A
S1232520002520494E20474F4C44212100346032E8C67FC987108EC88AF6C8A0C104272F87
S1232540108EC88AE6A4C10923065F32E83A35E04FEDE458491F016E99255B254A275528C7
S1232560AF27EC256F26E626A7268227A127748E2001BD5B7AF6C8A0C104102700F2C64B7F
S1232580BD3E217FC987F6C8A0C104102700D0E6A4C104102703ED8E2092BD5B7AC6FAF723
S12325A0C8A86FE8276FE82516007BF6C811E7E828C508270AC601E7E827C604E7E825C617
S12325C004E4E828270AC601E7E827C603E7E825C602E4E828270AC601E7E827C602E7E813
S12325E025C601E4E8282708C601E7E827E7E825F6C81BE7E826270AC601E7E827C605E7A9
S1232600E825F6C81CE762270AC601E7E827C605E7E8256DE827270E6DE82626096D622689
S1232620056DE828270EBD3DAC7AC8A8F6C8A85D1026FF776DE825271FE6E825F7C8FEC1AF
S12326400410270317C101102702E88E20B5BD5B7AC60732E83A35E0C602E7E82520DDE674
S1232660A4C104102705C28E205EBD5B7A16FF27F6C967C1011026FF058E2024BD5B7A1679
S1232680FEFC8E2281BD5B7A8E22A0BD5B7AC601BD04F8F7C8FEC104102705488E22AFBDF5
S12326A05B7AC60716FEA48E2172BD5B7AC605BD5F2AF7C8FF1D58491F01AE890481AFE30E
S12326C08E218CBD5C598EC8BFBD5B7A8E21A1BD5B7A5FBD04F8F7C8FE3262C10410270655
S12326E05AC60716FE658E20BABD5B7A8E20D6BD5B7A5FBD04F8F7C8FEC10410270550C63A
S123270064BD5F2AC146102202838E215FBD5B7AC64BBD3E217FC9877FC97EC614BD5F2ACB
S1232720F7C977C10210270284C1041027027EC10710270278C10910270272C10C1027026E
S12327406CC11010270266C111102702607DC97E27C916025DF6C967C101102702598E1FDE
S12327604FBD5B7ABD3DD97AC967C67FF7C8FCC60116FDD78E2437BD5B7A8E245DBD5B7A2A
S1232780C602F7C8A5C601BD04F8F7C8FE7FC8A5C104102702298E22AFBD5B7AC60716FDE8
S12327A0AAC603F7C8A58E22E4BD5B7AC64BBD3E217FC9878E2305BD5B7A8E2328BD5B7A69
S12327C08E2347BD5B7AC601BD04F8F7C8FE7FC987C101102703DEC104102701B4C1031000
S12327E02704D6C102102705C216FD5E8E1FE0BD5B7AC602F7C8A6C65EF7C8A4BD3DAC7AAF
S1232800C8A4F6C8A42EF5F6C940FBC93FC40126037AC967F6C940FBC93FC4022708F6C973
S123282067CB02F7C967F6C967585858E7E813F6C940860D3D1F01EBE813FBC93FE7E8136F
S1232840F7C93FC1C82305CB38F7C93F86113D1F02F6C94086073D1F011F20E7621F10E746
S1232860E812E662EBE812F7C940C1C82308F6C93FCB38F7C93F7DC9672605C601F7C967B3
S1232880F6C967C132102200F3C67FF7C8FCC602F7C8A62003BD3DACF6C8A4E7625CF7C83A
S12328A0A4E662C15E2FEE7FC8A4C60116FC9CF6C967C1321027FEA68E1F6BBD5B7A7FC8A7
S12328C0FE7DC970102702F88E1F79BD5B7AC601F7C8FEF6C8FEC101102703568E1FBABDA1
S12328E05B7AC607F7C8A6C603F7C980C64BBD3E217FC987F6C98058FBC980BD5F2A5CF754
S1232900C8FE8E1FC8BD5CC68EC8BFBD5B7AF6C8FE1D1F01FCC9633410A3E1FDC96310834D
S12329200000102F03897CC967C67FF7C8FCC60116FC18F6C8A0C1041026FD0F7AC9678E8E
S123294020B2BD5B7AC64BBD3E21C67FF7C8FC7DC967102F047DE6E82516FBEFE6A4C10433
S12329601026FCE77CC9678E20ADBD5B7AC64BBD3E21C67FF7C8FCC60116FBCFC632F7C915
S12329806716FF058E2077BD5B7A16FC0A5F16FBBA8E2358BD5B7AC664BD5F2AC12810238E
S12329A0046B8E235CBD5B7AC60716FB9EC601F7C97EC61E16FB94C604F7C8A016FBB07F92
S12329C0C9878E2480BD5B7A8E249ABD5B7A8E24BFBD5B7AC64BBD3E215FBD060DF7C8FEE5
S12329E07FC9877FC8117FC81C7FC81BC104102F04D0CBFB1D58491F01AE8904A5BD5B7AF9
S1232A00F6C8FECBFBF1C95F10260485C64BBD3E217FC9878E2480BD5B7A8E249ABD5B7ABA
S1232A208E24BFBD5B7AC64BBD3E215FBD060DF7C8FE7FC9877FC8117FC81C7FC81BC104C5
S1232A40102F047ECBFB1D58491F01AE8904A5BD5B7AF6C8FECBFBF1C96010260433C64B81
S1232A60BD3E217FC9878E2480BD5B7A8E249ABD5B7A8E24BFBD5B7AC64BBD3E215FBD0673
S1232A800DF7C8FE7FC9877FC8117FC81C7FC81BC104102F042CCBFB1D58491F01AE890469
S1232AA0A5BD5B7AF6C8FECBFBF1C961102603E1C64BBD3E217FC9878E2480BD5B7A8E24B2
S1232AC09ABD5B7A8E24BFBD5B7AC64BBD3E215FBD060DF7C8FE7FC9877FC8117FC81C7FA1
S1232AE0C81BC104102F03DACBFB1D58491F01AE8904A5BD5B7AF6C8FECBFBF1C962102624
S1232B00038FC64BBD3E217FC9878E24F9BD5B7A8E2504BD5B7ABD3E42C614BD5F2AE7E871
S1232B2023F6C9674F1F013278CC0000ED64AF66EDE4AF6230E83EBD794CCC0000ED648E98
S1232B4003E8AF6610AEE83E10AFE4EEE840EF6230E83ABD794C6CE82BE6E82B4F1F01CCFC
S1232B600000ED64AF66AEE83AAFE410AEE83C10AF6230E836BD794C3264AEE83210AEE8B1
S1232B8034BFC90410BFC906AFE410AF628E2521BD67BD8EC8BFBD5B7AFCC96AF3C906FDD5
S1232BA0C96AFCC968F9C905B9C904FDC968C607326416F9968E22AFBD5B7AC60716F98BD6
S1232BC0C614BD5F2A4F1F02F6C9494FEDE4F3C9531F01341010ACE11022FCF7C601F7C87E
S1232BE0FE16FCEFC664BD5F2AC11310220132C632BD5F2A5CF7C9678E22CDBD5B7AC60192
S1232C00F7C8A6C604E7E824200B6AE824C601F7C8A6BD3DACF6CACF26F86DE82426EBC61E
S1232C207FF7C8FCC60116F9228E2038BD5B7A16F9658E1F96BD5B7A5FBD04F8F7C8FEC107
S1232C4004102702238E1762BD5B7A5F16F8FC8E20EBBD5B7A5FBD04F8F7C8FEC104102613
S1232C60FA9D7FC9878EC350AFE3CC0000EDE38E2105BD0755BFC900AFE81ACC0000EDE874
S1232C801810BEC96810AFE81CFEC96AEFE81E3264ECE81410AEE818342010A3E1102302D7
S1232CA07D8E2115BD5B7AC64BBD3E2116FA5BC64BBD3E21C60216F8928E23A3BD5B7AC664
S1232CC04BBD3E21C664BD5F2AC146102301FEC614BD5F2AF7C9771D58491F01AE8901244F
S1232CE0AFE38E23A7BD5C598EC8BFBD5B7AC605BD5F2AB6C9673DCB05F7C97FBD5F2A5CE8
S1232D00E764F6C9771D3406E6664F1F01BD792D3262BFC978C64BBD3E21C61F326216F871
S1232D202ACC0032EDE3CC0001EDE38E22B6BD07551F10F7C967326416FEBD7FC987C664C5
S1232D40BD5F2AC13B10220132F6C8FF58FBC8FFE7E82160E821E6E821CB13E7E821C61401
S1232D60BD5F2AE1E821102E01718E21B4BD5B7AF6C96758FBC967BD5F2A5CF7C8FE8E21C3
S1232D80C4BD5CC68EC8BFBD5B7AF6C8FE4FEDE4F3C9631F01BFC96310BEC9363420ACE131
S1232DA02F0410BFC963C60716F7A08E23CEBD5B7AC664BD5F2AC1461022FF13C614BD5FA5
S1232DC02AF1C946102502328E23D3BD5B7AC60716F778E6E825F7C9677FC987C607BD0081
S1232DE06EBD3F2B8E1F47BD5B7AC64BBD3E217FC987F6C938F7C8FFBD53F8F6C8FFF1C984
S1232E00382705C64BBD3E21C60116F73E8E236CBD5B7AC664BD5F2AE762F6C967860A3DB0
S1232E20ED6C6C62E6624F3406AE6EBD792D3262BFC9003184AF6ACE0000EF68FCC96AE3F6
S1232E406AFDC96AFCC968E969A968FDC96834108E238EBD5F6F8EC8BFBD5B7AC64BBD3E55
S1232E6021C607326216F6E37CC9678E1FB6BD5B7AC67FF7C8FCC60116F6D0C632BD5F2A5B
S1232E80C114102300738E21FFBD5B7AC60716F6BAF6C96758BD5F2A5CF7C8FE8E24D3BDC1
S1232EA05B7AF6C8FE8E18A5BD5CC68EC8BFBD5B7AF6C8FE1D10B3C963102C0133C6071691
S1232EC0F6898E24CEBD5B7AC60716F67EC664BD5F2AC13C102301C416FAC7C614BD5F2AAA
S1232EE0E7E822F6C8FF58FBC8FFE1E822102E01B9BD5623C60716F652C664BD5F2AC1325F
S1232F00102301758E21FFBD5B7A8E2213BD5B7AC610BD5F2A5CF7C976C60716F62D1F0399
S1232F20342011A3E1102701D3F6C96786323D1F023406ACE11025F7D1ECE81AA3E816ED1D
S1232F40E81EECE818E2E815A2E814EDE81CAEE81CBFC96810AEE81E10BFC96AFEC900EFEF
S1232F60E82BCC0000EDE829108E00643278ED6410AF66AEE831AFE4EEE833EF6230E83E44
S1232F80BD794CECE826E3E833EDE818ECE824E9E832A9E831EDE816AEE816AF64EEE81871
S1232FA0EF66ECE83EEDE4AEE840AF6230E83ABD73063268E6E835F7C8FE1F20BD5F2AF196
S1232FC0C8FE102C012DC607BD5F2AF7C8FF1D8EC96C318BE6A4E7E820F6C8FEBD5F2A5C79
S1232FE0EBE820E7A48E212FBD5B7AC60716F55BC64BBD3E21C60216F5518E23F0BD5B7A28
S1233000C606BD5F2AF7C8FEC664BD5F2AC13210230036F6C8FE1D1F0230A9C945E684C105
S12330200323DD5AE784F6C8FE1DEDE458491F01AE890164AFE38E240FBD5C5932628EC80E
S1233040BFBD5B7AC60716F502F6C8FE1D1F0230A9C945E684C1111022FFA55CE784F6C8C9
S1233060FE1DEDE458491F01AE890164AFE38E2424BD5C59326216FFC5C664BD5F2AC13258
S1233080102301848E222BBD5B7A8EC94BCC0000ED818CC95F26F6C60716F4AFC664BD5F8F
S12330A02AC1281023006816F7428E21DABD5B7AF6C96758FBC967BD5F2A5CF7C8FE8E213D
S12330C0E9BD5CC68EC8BFBD5B7AF6C8FEE7E82DBEC9631D1F02341010A3E1102C00B5E6EE
S12330E0E82D4F1F021F103420A3E1FDC963C60716F4588E2143BD5B7A16FEEF10AEE816A5
S1233100EEE81A344010ACE11023FE1D16FB928E23BABD5B7AC606F7C8A6C664BD5F2AC15A
S123312032102200B2F6C938E762F1C9671022F8715AE767E662CBEF102B00624F1F01CCF7
S123314000023410301F8CFFFF2704584920F535101F02CE00003278CC0000ED648E03E8F7
S1233160AF6610AFE4EF6230E83EBD794C326810AEE83610AF63EEE838EF65EC65C300015B
S1233180FDC93BEC63C9008900FDC939BD53F8C60716F3B7C64BBD3E21C60216F3ADC60F75
S12331A0E0674F1F01E6674FEDE4CC00013410301F8CFFFF2704445620F535101F02CC00F2
S12331C002AEE43410301F8CFFFF2704584920F535101F0316FF7FFCC9391F985F4646843A
S12331E08074C93B76C93CBEC93B3410AAE0EAE0FDC93B74C93976C93ABD53F8BEC963100C
S1233200260032C60216F3438E2246BD5B7AF6C9675858BD5F2A10BEC96530213ABFC96526
S123322034108E226BBD5F6F8EC8BFBD5B7AC607326216F316C60716F3113E005354415913
S12332402E2E2E00594F552044494544212100414E4F54484552204E4F5420534F208000E7
S1233260414E4F5448455280004D494748545920414456454E545552455280004249544523
S1233280532054484520445553548000444F20594F552057414E5420544F2080005452598A
S12332A020414741494E3F203C312D343E80004C4F41442041204348415241435445523F32
S12332C0203C343E8000434841524143544552204C4F414445440034603273C608BD006E14
S12332E0BD5718CCFFFFFDC9635FBD006EBEC9638CFFFF1027025CC604BD006EC67FF7C81F
S1233300FCC601F7C8F7F7C8F37FC9878E32C6BD5B7ABEC936BFC963CC0000FDC968FDC92F
S12333206AC601F7C967BEC93DBFC9658E0002CCC96C4FC4011F031F103440A3E11F01C4AE
S123334001E76A102705557FC96CC601E766C60AE769C60BE06AE76BE66A4F1F0330C9C9AE
S12333606C6F62CC0000ED816C62E662C10423F3E669CBF6E76CE666CB0AE762E66BC10AF8
S1233380270FE6621D1F016F89C96C6C626A6C26F1BD3F2BF6C826F7CA78BD6836C601E739
S12333A063C6FFF7C977CC0000FDC978C6FAF7C8A7F6C96C27045AF7C96CF6C96D27045AED
S12333C0F7C96DF6C96E27045AF7C96EF6C96F27045AF7C96FF6C97027045AF7C970F6C957
S12333E07127045AF7C971F6C97227045AF7C972F6C97327045AF7C973F6C97427045AF721
S1233400C974F6C97527045AF7C975F6C97627045AF7C976BEC9552726FEC9631F304F108C
S1233420B3C936271A1E0133CBFFC963BEC9361F304F341010A3E12F061F101DFDC9637AF6
S1233440C8A7BD3DAC6D63102700CCF6C967F7C9807FC8FEF6C8FEBD0DFEE762F7C8FEC685
S1233460FFF7C9777FC97FCC0000FDC978E662C1011027012AC1021027012FC103102700B0
S12334805BC1041027006AC1051027006CF6C8FEBD19AAE762F7C8FEC6FFF7C8F5E662C13A
S12334A002102702A6C10610270054C1051027003AF6C8FEBD252DF7C8FEC1071027004FC8
S12334C0C1011027027AC1021027026EC11E2712C11F10260041F7C8FE16FF7B7FC8FE16F2
S12334E0FFAB7FC8FEF6C8FE16FF6C7FC8FE16FFC0C601F7C8FE16FF947FC8FE16FFB2BD8C
S12335003EB85D1027FFAAC61FF7C8FE16FF487FC8FEC64BBD3E217FC9878E323ABD5B7AA8
S1233520BD1765F7C8FE5D261FF6C811E767C508102700387FC8A77DC8A7102600427DC8FF
S1233540FE1027020C16FE55BD3F1EC619BD3E2116FE4ACEFA50FFC82AF6C826F7CA78BD65
S12335606836BD3F98C601E76316FED6C604E467261AC602E4671027FFBDBD39C516FFB738
S12335806F637DC8FE1027FEB616FFB25FBD4690C64BBD3E21C601F7C8FE6F6316FE027F56
S12335A0C8FEC64BBD3E2116FDF37FC8FEF6C987C103102701BCC605F7C8A68E3244BD5B7F
S12335C07AC64BBD3E217FC8F7C6FFF7C8F57FC8F3F7C9778EFA50BFC82A6F646F651600D2
S12335E062F6C986CBF6F7C98634048E324FF6C985BD597EC6CCD70CF6C986CBF6F7C98639
S1233600E7E48E3269F6C985BD597EC6CCD70CF6C986CBF6F7C98634048E327CF6C985BDA4
S1233620597EC6CCD70CF6C986CBF6F7C98632626D6410270042E664C1011027007AC6038A
S1233640BD006EC690F7C985C670F7C986BD72E2BDF192BDF1BAC670D704C65FBD7261F6AF
S1233660C938C1031023FF79F6C986CBF6F7C98634048E326016FF76CBF6F7C98634048EDA
S1233680328CF6C985BD597EC6CCD70CF6C986CBF6F7C98634048E329DF6C985BD597EC69C
S12336A0CCD70C32627DC8111027007FC601E765E664C1011026FF86BEC9098CFFFF260E8F
S12336C07DC908102700617DC8791026005AF6C986CBF6F7C98634048E328CF6C985BD5988
S12336E07EC6CCD70CF6C986CBF6F7C98634048E32AFF6C985BD597EC6CCD70CF6C811E7DD
S12337006A32625D2704C601E765C608E4682704C604E7656D681026FF246D651027FF1E5D
S1233720E665C1041027005516FBB5E665C1011026FF03E7646F6516FF047FC8FE16FE6DE0
S12337407FC8FEC64BBD3E2116FC527FC8FE16FE5C7FC9878E323CBD5B7AC619BD3E21BDC5
S12337603EB8F7C8FE5D1027FDDBC61FF7C8FE16FCE5C64BBD3E217FC98716FE39C609BDB8
S1233780006E7DC90827087DC879260316FB68BEC909BFC902BD5718BEC902BFC909BFC9F2
S12337A036F6C90BF7C938BEC90CBFC939FEC90EFFC93BFCC910FDC93DF6C912F7C93FF643
S12337C0C913F7C940BEC914BFC941FEC916FFC9438EC918CCC9453410AAE0EAE04FC401C8
S12337E01083000010260072FCC918FDC945BEC91ABFC947FEC91CFFC949BEC91EBFC94BC6
S1233800FEC920FFC94DFCC922FDC94FBEC924BFC951FEC926FFC953FCC928FDC955BEC991
S12338202ABFC957FEC92CFFC959FCC92EFDC95BBEC930BFC95D8EC932CCC95F3410AAE06C
S1233840EAE04FC401108300002636FEC932FFC95FFCC934FDC96116FAAFF6C918F7C945BC
S1233860F6C919F7C946F6C91AF7C947F6C91BF7C948F6C91CF7C949F6C91DF7C94A16FFC5
S123388079F6C932F7C95FF6C933F7C960F6C934F7C961F6C935F7C96216FA6D6F66C60B3C
S12338A0E76916FAAD20205354415453203E3E8000253A20250048503A20252F25003C3C85
S12338C020454E5620203E3E800044554E47454F4E3A202500202020202020202020583D5B
S12338E02520593D2500524F4F4D3A202500454E434F554E5445523A2025204C4556454C3E
S1233900202500454E434F554E5445523A202520004E4F4E45003C3C2056415253203E3E6C
S123392080004C563A20250053553A20252F250058503A20250047443A20250054473A2041
S123394025003C3C204D4F4453203E3E800025202B25003C3C204954454D53800025203AA9
S123396025002D2D3E8000594F5520444F4E27542048415645204F4E45212100594F5520E8
S1233980555345442025002A2A2A5A415021212A2A2A00594F55204645454C2042455454FC
S12339A045522100535452454E47544820464C4F5753205448524F55474820594F55522061
S12339C0424F44590034603277BDF1BA7DC811270220F66F626F636F646F65BDF192BD72C2
S12339E0E2BDF1F8BDF1BAC67FD704F6C81BE7682F0D6D642609E662C10322035CE7626D0C
S1233A00682C0A6D6426066D6227026A62BDF2A56D6210260072C678E7E28E38A5C6E0BDA3
S1233A20597EC6CCD70C108E000032611F2058491F01AE890164AFE3E6A9C9458E38B1BD06
S1233A406B731F2086F63D1F01CB5034048EC8BFC6E0BD597EC6CCD70C31213263108C00D2
S1233A600626C9BEC936AFE3FCC963EDE38E38B6BD6F94C60AE7E28EC8BFC6E0BD597EC61C
S1233A80CCD70C326516030DE662C101102600A7C678E7E28E38BEC6E0BD597EC6CCD70C95
S1233AA0F6C9678E38CABD5CC6C650E7E28EC8BFC6E0BD597EC6CCD70CF6C940E7E2F6C943
S1233AC03F8E38D5BD6D87C646E7E28EC8BFC6E0BD597EC6CCD70CF6C8F41DED6458491FDE
S1233AE001AE8904E4AFE38E38E6BD5C59C63CE7E28EC8BFC6E0BD597EC6CCD70CF6C9772D
S1233B0032675D2D161D58491F01AE890124AFE3F6C97F8E38EEBD6B73200B8E3911AFE37A
S1233B208E3903BD5C593262C632E7E28EC8BFC6E0BD597E1600B7E662C102102600B8C615
S1233B4078E7E28E3916C6E0BD597EC6CCD70CF6C9388E3922BD5CC6C650E7E28EC8BFC61B
S1233B60E0BD597EC6CCD70CBEC93DAFE3FCC965EDE38E3928BD6F94C646E7E28EC8BFC6A9
S1233B80E0BD597EC6CCD70C327CBEC939AFE4FCC93BED628E3930BD67BD326BC63CE7E2A8
S1233BA08EC8BFC6E0BD597EC6CCD70C327CBEC968AFE4FCC96AED628E3936BD67BDC632B9
S1233BC0E7E28EC8BFC6E0BD597EC6CCD70C327CBEC941AFE4FCC943ED628E393CBD67BD10
S1233BE0326AC628E7E28EC8BFC6E0BD597EC6CCD70C326116019EE662C10310260053C607
S1233C0078E7E28E3942C6E0BD597EC6CCD70CC650E768108E00003261AEA9C94B27263425
S1233C2010AEA901F9AFE38E394EBD6EDCE66B34048EC8BFC6E0BD597EC6CCD70CE66CCB07
S1233C40F6E76C32653122108C000E1026FFCA160143E662C1041026013BC678E7E28E39DD
S1233C6053C6E0BD597EC6CCD70C108E00003261AEA9C959AFE3ECA90207EDE38E395DBDB3
S1233C806EDC1F2086FB3D1F01CB5034048EC8BFC6E0BD597EC6CCD70C31223265108C001C
S1233CA00626CDF6C81C2F0A6D6526066D6327026A635D2C0D6D652609E663C1012E035C01
S1233CC0E763E66386F63D1F01CB5034048E3962C69BBD597EF6C81CE76632617DC81110E3
S1233CE02700B2E663CB07E7631DEDE4E663CBF9E763ECE458491F0331C9C94BAEA4260E16
S1233D007FC9878E3967BD5B7A6F66160085301FAFA47FC987EEC901F9EFE38E397CBD5C50
S1233D20598EC8BFBD5B7A32626D632621C601F7C967C619F7C93FC60DF7C9408E3987BD2A
S1233D405B7AC67FF7C8FCC601E766160040E663C10126288E3993BD5B7A10BEC963C61407
S1233D60BD5F2A30214F3410E3E1FDC963BEC936341010A3E12F15BFC96320108E39A4BD0C
S1233D805B7AC614BD5F2ACB0BF7C96C6F66C64BBD3E21200E7DC8112607E668E76416FCCA
S1233DA03A6F667FC811E666326935E0BD5B38BD72E2BD5AEDBDF1BAC67FD704F6C8A42E1F
S1233DC00CC64F7DC96E2705BDF2A92003BD7261C603BD006EBD71CB39327AC601F7C8A2D9
S1233DE07FC8A3C63EF7C845C60FF7C8448E1388AF64201DEC64C3FFFBEDE41F894FE7635D
S1233E00AEE4AF641F10F7C84CE663F7C84BBD3DAC7DC8A226DEC63FF7C8457FC8443266AF
S1233E20393404BD3DAC7DC81B26147DC81C260F7DC811260A6DE4260220046AE420E43290
S1233E406139C604BD5F2AF7C95FC604BD5F2AF7C960C604BD5F2AF7C961C604BD5F2AF72D
S1233E60C96239346034043184CE0000E6C9C99AE7C9C99BE6C9C9AEE7C9C9AF1F30584927
S1233E801F01EC89C9D4ED89C9D6335F1183FFED26DAE6E4C1FF260EF7C9887FC99CCC000F
S1233EA000FDC9B0200EE6E4F7C988E667F7C99C10BFC9B0326135E03460327FC6FFF7C9E5
S1233EC077F6C988C1FF26046FE42013F7C977F6C99CF7C97FBEC9B0BFC978C601E7E4CE48
S1233EE00000E6C9C989E7C9C988E6C9C99DE7C9C99C1F3058491F0110AE89C9B210AF8978
S1233F00C9B033411183001326D8C6FFF7C99B7FC9AFCC0000FDC9D6E6E4326135E06FE2C9
S1233F208E0000C6FFBD3E633261393440CE0000C6FFE7C9C9886FC9C99C1F3058491F014B
S1233F40CC0000ED89C9B033411183001426E135C03C343E20544F205553452053544154B0
S1233F60538000594F552044455343454E4420494E544F2054484580004445505448204F98
S1233F80462054454C454E4741524480004245574152452E2E2E80003440327BCEC945C61E
S1233FA006BD5F2AE761C606BD5F2AE762C606BD5F2AE7E4E661EB62CB03E761E6E4EB6171
S1233FC0E7C01183C94B26D7C6FAF7C8A86F637AC8A8F6C8A85D1027FFC2C690F7C985C692
S1233FE070F7C986BDF192BD72E2BDF1BABDF1F8F6C811E7E4C508102600965D2706C60124
S1234000E76320066D631026FF92C644D704CB2CD704C65FBD7261F6C986CBF6F7C98634A9
S1234020048E3F51F6C985BD597EC6CCD70CF6C986CBF6F7C986BE0164AFE3F6C9458E3842
S1234040B1BD70AEFC0166EDE3F6C9468E38B1BD70AEBE0168AFE3F6C9478E38B1BD70AE35
S1234060FC016AEDE3F6C9488E38B1BD70AE3269BE016CAFE3F6C9498E38B1BD70AEFC01FD
S12340806EEDE3F6C94A8E38B1BD70AE326416FF3EF6C9484FFDC936FDC963CC0000FDC98D
S12340A068FDC96AFDC941FDC943C601F7C938F7C967C619F7C93FC60DF7C9408EC94BCE4D
S12340C0C96CCC0000ED816FC08CC95F26F47FC976BD3E42CC0000FDC939FDC93B8E00011A
S12340E0BFC93DBFC965CE0000C6FFE7C9C9886FC9C99C1F3058491F01CC0000ED89C9B00E
S123410033411183001426E16F64C690F7C985C670F7C986BDF192BD72E2C670D704C65F07
S1234120BD7261F6C986CBF6F7C98634048E3F63F6C985BD597EC6CCD70CF6C986CBF6F7ED
S1234140C98634048E3F79F6C985BD597EC6CCD70CF6C986CBECF7C98634048E3F8DF6C9AE
S123416085BD597EC6CCD70C6C673263E664C1A11026FF96326535C04C4556454C20258005
S12341800041424F5254004341535400594F5520444F4E275420484156452054484154204A
S12341A04C4556454C205350454C4C532100594F5520444F4E2754204841564520454E4FB0
S12341C0554748205350454C4C20554E4954532100434153543A202500554E444541442008
S12341E0444F4E275420534C454550210054484520252049534E275420534C4545505921E7
S123420000544845202520495320534C454550494E47203C343E20544F204B494C4C3A002A
S1234220455641444500495420574F4B452055502100594F55204645454C2042455454456F
S12342405200544845202520495320494E53554C544544004154204245494E472043414C94
S12342604C454420554E44454144005448452025204C495354454E53205749544820444527
S1234280414620454152530049542052554E5320494E2046454152212100544845202520C6
S12342A0444F444745532041534944452100544845202520495320574542424544203C3462
S12342C03E20544F204B494C4C3A0049542042524F4B452046524545210054484520554E1C
S12342E0444541442049474E4F52455320594F55522057494C4553210054484520252052A9
S123430045534953545320594F552100544845202520495320434841524D4544203C343EBC
S123432020544F204B494C4C3A005A5A5A5A414141505050212121005448452025204947DC
S12343404E4F52455320594F55210054484520252049532048454C44203C343E20544F20C4
S12343604B494C4C3A00544845202520444F45534E27542042454C4945564521004954209F
S123438042454C494556455321202E2E2E2E2041525247482E2E2E004E4F5420494E204D9E
S12343A0454C4545212100444952454354494F4E3E004F4E4C592053544F4E4520484552D3
S12343C0452E2E2E00454153540057455354004E4F52544800534F555448003F3F3F00506F
S12343E04F4F460057484F4F4F4F4F534848212121005448452025204953204255524E49E3
S12344004E47210054484520252049532049534E2754204146464543544544004F4E452027
S123442053544F4E45205354415455452E2E2E2E004449452121212121212100554E44455C
S123444041442041524520414C524541445920444541442121005448452025204C415547DA
S123446048532100434153542054454C45504F52540054454C45504F5254218000425554C7
S1234480544F4E20544F2046494E49534880004E4F5254482D20534F5554482B203A2025CE
S12344A08000574553542D20454153542B2020203A2025800055502D20444F574E2B20209C
S12344C02020203A20258000544F204641522E2E2E54525920414741494E004F4E4C592072
S12344E053544F4E452054484552452E2E2E00544845205350454C4C204641494C532E2EA1
S12345002E004F4E4C59205448494E204149522E2E2E002A2A2A20504F4F4621202A2A2ABD
S12345200051574552545921212121212100544845202520444F45534E275420484541524B
S12345402E2E2E0042525252522121212100434153542057414C4C204F4620464952452029
S12345602D205757484F4F4F53534821212100412057414C4C204F46204649524520415079
S123458050454152532041424F555420594F5500544845202520495320474F4E452E2E2E2F
S12345A00054484520252057414C4B53205448524F55474821212100424C41434B20444585
S12345C041544820464F522054484520252000495420495320494D4D554E45210054484547
S12345E0205350454C4C204241434B464952455321210054494D452049532046524F5A459A
S12346004E2C204D4F4E53544552532043414E4E4F540041545441434B20594F550054482D
S123462045202520444F45534E2754205345452E2E2E0041205343494E494C4C4154494EB6
S123464047205348494654494E472057414C4C204150504541525300594F55204A555354B4
S123466020574153544544204120434F4D424154205350454C4C2100495420535546464520
S1234680525320252048495420504F494E545300346032E8E6E765F6C9384FEDE4CC000364
S12346A0EDE3AE62BD72E932621F10E76F6F6D6F6E6FE810BDF192BD72E2BDF1F8BDF1BA66
S12346C0C67FD704F6C81BE7E42F0E6DE8102609E66DC10422035CE76D6DE42C0B6DE81067
S12346E026066D6D27026A6DE66DE16F1022003EBDF2A5F6C81C2F0B6DE81026066D6E27A2
S1234700026A6E5D2C0E6DE8102609E66EC10422035CE76EC606E06E5858585834048E3928
S123472062C69BBD597EC6CCD70C32612003BDF2A1C601E7E8107DC81B260AF6C81C27026A
S1234740C601E7E810E66D5CE7668E4178BD5CC6C678E7E28EC8BFC6E0BD597EC6CCD70CC2
S1234760E66E4FED6158491F01EE890430108E000032611F3030AB1F2058585850CB603487
S123478004AE84C6B0BD597EC6CCD70C31223261108C000C26DDF6C811E762C50127098E33
S12347A04181BD5B7A160BB06D62260316FF057FC9878E4187BD5B7AE66DE16F23098E4169
S12347C08CBD5B7A160B91E6664F1F0310B3C96523098E41AEBD5B7A160B8D7FC987E66D4C
S12347E04F58491F01E66E4FEDE45849AE890430308BAE84AFE38E41D1BD5C598EC8BFBDC2
S12348005B7AFCC9653440A3E1FDC96532626D6D102601806D6E260DC608BD5F2ACB05F764
S1234820C8FE160B48E66EC101102600886D6510270B2A7DC97E27098E41D9BD5B7A160BE4
S123484027C614BD5F2A5CF1C946231FF6C9771DEDE458491F01AE890124AFE38E41EDBD23
S12348605C598EC8BFBD5B7A1600C1F6C9771DEDE458491F01AE890124AFE38E4201BD5C44
S1234880598EC8BFBD5B7AC601BD04F83262C10427098E4220BD5B7A160180C605BD5F2AE1
S12348A0C1032203160AF48E4226BD5B7AC64BBD3E21160AB3E66EC10226298E4232BD5BEF
S12348C07A10BEC963C608BD5F2A30214F3410E3E1FDC963BEC936341010A3E12F03BFC92C
S12348E063160A84E66EC103260DC60BBD5F2ACB05F7C96E160A71E66EC104102600806D80
S12349006510270A587DC97E2627F6C9771DEDE458491F01AE890124AFE38E4242BD5C592D
S12349208EC8BFBD5B7A8E4254BD5B7AC601160A22C614BD5F2AE7E4F6C97FE767F6C9389F
S1234940FBC947E067E763E6E4E163231FF6C9771DEDE458491F01AE890124AFE38E426B59
S1234960BD5C598EC8BFBD5B7A16FFC06C67E66754F7C97F8E4288BD5B7AC605160A1EE6B9
S12349806EC105102609D1C60BBD5F2ACB05F7C96F1609D4E66DC1011026015F6D6E10260A
S12349A000966D65102709B5C606BD72113184C605BD72113420BD792D3262F6C97F4FED05
S12349C0E4308BF6C9464F1F033406ACE1231FF6C9771DEDE458491F01AE890124AFE38E54
S12349E0429ABD5C598EC8BFBD5B7A16FF3EF6C9771DEDE458491F01AE890124AFE38E42C8
S1234A00AEBD5C5932628EC8BFBD5B7AC601BD04F8C104270B8E4220BD5B7AC60416097DD8
S1234A20C614BD5F2AF0C97FC10A230316096C8E42CBBD5B7A160930E66EC101260DC615FE
S1234A40BD5F2ACB05F7C97016082CE66EC102260DC60CBD5F2ACB03F7C8FE16090FE66E53
S1234A60C103260DC615BD5F2ACB05F7C96D1608F7E66EC1041026006D6D65102708DE7DE0
S1234A80C97E27098E42DABD5B7A1608DBC606BD72113184C605BD72113420BD792D32624F
S1234AA03001F6C94A4F1F033406ACE1231FF6C9771DEDE458491F01AE890124AFE38E429B
S1234AC0F9BD5C598EC8BFBD5B7A16FE5FF6C9771DEDE458491F01AE890124AFE38E430C9D
S1234AE0BD5C5916FF1EE66EC1051026086AC615BD5F2ACB05F7C96C16086DE66DC102107D
S1234B002601456D6E26238E432ABD5B7AC607F7C8A6C64BBD3E21F6C93858FBC93858BDB5
S1234B205F2ACB0FF7C8FE160843E66EC10126298E4232BD5B7A10BEC963C618BD5F2A30A9
S1234B40214F3410E3E1FDC963BEC936341010A3E12F03BFC96316080FE66EC102260DC6C1
S1234B601FBD5F2ACB05F7C96E1607FCE66EC103260DC615BD5F2ACB05F7C9711607E9E65C
S1234B806EC1041026007E6D65102707D0C614BD5F2AFBC97FF1C946231FF6C9771DEDE481
S1234BA058491F01AE890124AFE38E4338BD5C598EC8BFBD5B7A16FD73F6C9771DEDE4581E
S1234BC0491F01AE890124AFE38E434BBD5C598EC8BFBD5B7AC601BD04F83262C10427093C
S1234BE08E4220BD5B7A16068EC621BD5F2AE768F6C97FCB07E168240316079F8E42CBBD75
S1234C005B7A160763E66EC1051026074B6D651027074AC616BD5F2AFBC97FF1C946251F96
S1234C20F6C9771DEDE458491F01AE890124AFE38E4366BD5C598EC8BFBD5B7A16FCED8EC0
S1234C40437DBD5B7A160753E66DC1031026021E6D6E102601006D6527098E4398BD5B7A12
S1234C601607058E43A7BD5B7A7FC8FFC6FAF7C8A8BD3DAC7DC8A82605C6FFF7C8FF7DC811
S1234C801B2F24F6C93FC1C826098E43B2BD5B7A1606D55CF7C93FC603F7C8FC8E43C5BDB4
S1234CA05B7AC601F7C8FF7DC81B2C1BF6C93FC10227D75AF7C93FC604F7C8FC8E43CABDFA
S1234CC05B7AC602F7C8FF7DC81C2F1DF6C940C1021027FFB55AF7C940C601F7C8FC8E436E
S1234CE0CFBD5B7AC603F7C8FF7DC81C2C1BF6C940C1C826045CF7C940C602F7C8FC8E43BE
S1234D00D5BD5B7AC604F7C8FFF6C811C5082705C6FFF7C8FFF6C811C5042705C6FFF7C80D
S1234D20FFF6C811C5022705C6FFF7C8FFF6C811C5012705C6FFF7C8FFF6C8FF26067AC8BC
S1234D40A816FF2DC1FF26058E43DB20038E43DFBD5B7A160602E66EC1011026003A8E43F4
S1234D60E4BD5B7AC64BBD3E21F6C9771DEDE458491F01AE890124AFE38E43F2BD5C598EF6
S1234D80C8BFBD5B7AF6C938860C3D1F01BD5F2ACB0FF7C8FE160420E66EC102260DC620C9
S1234DA0BD5F2ACB0AF7C8FE1605C2E66EC103102600376D65102705A4C60ABD5F2AC10626
S1234DC0231FF6C9771DEDE458491F01AE890124AFE38E4404BD5C598EC8BFBD5B7A16FBBA
S1234DE04B8E441CBD5B7A16048DE66EC104260DC61EBD5F2ACB05F7C97216056BE66EC12A
S1234E0005102605538E4431BD5B7A6D651027054C7DC97E27098E443CBD5B7A160549F61E
S1234E20C97F5858CB1E4FED69F6C93858FBC9384F1F01EC693410A3E1FDC902C64BBD3E3D
S1234E4021C664BD5F2A4F10B3C9021022054CF6C9771DEDE458491F01AE890124AFE38EFC
S1234E604456BD5C598EC8BFBD5B7A16FABEE66DC104102603AB6D6E102602546D65270948
S1234E808E4398BD5B7A1604DF7FC9878E4464BD5B7A108E000010AFE81110AFE8136FE81C
S1234EA015BD72E2BDF1F8BDF1BABDF192BDF2A5C67FD704C678E7E28E4472C6E0BD597E81
S1234EC0C6C0E7E28E447DBD597E1F208E448FBD68FEC650E7E28EC8BFC6B0BD597EE6E80D
S1234EE0158E44A2BD68FEC630E7E28EC8BFC6B0BD597EE6E8188E44B5BD68FEC610E7E2F5
S1234F008EC8BFC6B0BD597E32656DE8152625C650E7E28E3962C69BBD597EF6C81B3261B9
S1234F205D2F076DE810260231215D2C076DE8102602313FE6E815C1012636C630E7E28E20
S1234F403962C69BBD597EF6C81BE76332615D2F0E6DE8102609ECE811C30001EDE8116DDD
S1234F60622C0E6DE8102609ECE811C3FFFFEDE811E6E815C1022636C610E7E28E3962C6E1
S1234F809BBD597EF6C81BE76332615D2F0E6DE8102609ECE813C30001EDE8136D622C0E5E
S1234FA06DE8102609ECE813C3FFFFEDE813F6C81CE7622F0D6DE81026086DE81527036AD9
S1234FC0E8156D622C106DE810260BE6E815C1012E045CE7E815C601E7E8107DC81B2609E3
S1234FE0E6622702C601E7E8107DC811260316FEB0EEE811AEE813AFE818F6C9385858FB72
S1235000C9384FEDE430A4108C00002C081F20405082001F01ACE42E2530C4118300002CBF
S1235020081E01405082001E01ACE42E11AEE8182C081E01405082001E01ACE42F0E8E4474
S1235040C8BD5B7AC64BBD3E2116FE46F6C93F4FEDE4E3E811EDE816F6C940E762F6C96718
S1235060E76BEEE816305F8C00C72223E6624FEDE431AB108C00002F16108C00C82E10E61A
S12350806B4FEDE4AEE813308B1F10C1322F0F8E44DBBD5B7A8E44EFBD5B7A1602CA1F101A
S12350A05D2E0F8E4502BD5B7A8E44EFBD5B7A1602B6ECE816F7C93F1F20F7C9401F10F77C
S12350C0C9678E4513BD5B7AC67FF7C8FC160288E66EC101260DC610BD5F2ACB05F7C9731C
S12350E0160194E66EC102102600446D651027026C8E4521BD5B7AC64BBD3E217DC97E275B
S12351000316FD12C60BBD5F2AC108231FF6C9771DEDE458491F01AE890124AFE38E452E6D
S1235120BD5C598EC8BFBD5B7A16F80016026CE66EC10326196D65102702228E4544BD5B0D
S12351407AC63CBD5F2ACB05F7C8FE16021FE66EC104102600677FC9878E454EBD5B7A8EFF
S1235160456FBD5B7AC64BBD3E21C60ABD5F2AC104231FF6C9771DEDE458491F01AE89017E
S123518024AFE38E4590BD5C598EC8BFBD5B7A1601BFF6C9771DEDE458491F01AE890124C2
S12351A0AFE38E45A1BD5C598EC8BFBD5B7AC60ABD5F2ACB0FF7C8FE32621601B0E66EC1AF
S12351C005102601936D65102701927DC97E1026FC44F6C9771DEDE458491F01AE890124E5
S12351E0AFE38E45B8BD5C598EC8BFBD5B7AC614BD5F2A3262F1C94723098E45CFBD5B7A60
S1235200160165C643BD5F2AE76CF6C948CB21E16C23031601428E45DDBD5B7AC607160187
S12352207CE66DC1051026012F6D6E26218E45F3BD5B7A8E4613BD5B7AC614BD5F2ACB048D
S1235240F7C974C6066D651026015216011AE66EC101260CC628BD5F2ACB05F7C975201706
S1235260E66EC102102600336D65102700EFC60BBD5F2AC10A2705E66E160121F6C9771DC5
S1235280EDE458491F01AE890124AFE38E461EBD5C598EC8BFBD5B7A16F691E66EC10310BA
S12352A02600666D6527098E4398BD5B7A1600B88EC94BCC0000ED818CC95F26F6FDC968B9
S12352C0FDC96A108E0000C6FFE7A9C9886FA9C99C1F2058491F01CC0000ED89C9B03121CC
S12352E0108C001426E1C601F7C967C619F7C93FC60DF7C940BEC936BFC9638E3987BD5B46
S12353007AC64BBD3E2116005FE66EC104260F8E4232BD5B7ABEC936BFC96316004AE66E2F
S1235320C105102600328E4633BD5B7A6D65272DC64BBD3E21F6C9771DEDE458491F01AEBC
S1235340890124AFE38E4590BD5C598EC8BFBD5B7AC6063262160045C6021600408E465888
S1235360BD5B7AC64BBD3E21C6011600306D6527ECF6C8FE8E4678BD5CC68EC8BFBD5B7AEA
S1235380F6C8FE1D1F03BEC9781F103440A3E1FDC978108300002D0316FFCDC60332E81A08
S12353A035E0594F552057454E542055502041204C4556454C2100594F55204741494E203E
S12353C0252048495420504F494E545300594F5520474F20444F574E2041204C4556454C9E
S12353E02100594F55204C4F534520252048495420504F494E54530034603270F6C938FEC6
S1235400C93910BEC93B5AE7614F6C613406327CCC0000EDE4CC0002ED6230E812BD726695
S1235420327ECC0000ED648E03E8AF66ECE814EDE4AEE816AF6230E810BD794C3268AE683D
S1235440EC6A3440ACE1102200BE2609342010A3E1102200B38E53A2BD5B7AF6C938E7E42E
S12354605CF7C938E6E44F3406327CCC0000EDE4CC0002ED6230E812BD7266327ECC0000DE
S1235480ED648E03E8AF66ECE814EDE4AEE816AF6230E810BD794C3268EC68ED64AE6AAF03
S12354A066F6C948BD5F2A5CE762F7C8FE1D1F03FCC96330CBBFC9631F30F3C936FDC93649
S12354C0AE64BCC93925092618AE66BCC93B2411EC66C3FFFFFDC93BEC64C9FF89FFFDC909
S12354E039F6C9384F1F03FCC96530CBBFC9651F30F3C93DFDC93DE6628E53B7BD5CC68E5D
S1235500C8BFBD5B7A1600DAE661C10122088E0000CC00002045E661CBFEE7614F1F01E6DF
S123552061CB02E7613410327CCC0000EDE4CC0002ED6230E812BD7266327ECC0000ED64B9
S12355408E03E8AF66ECE814EDE4AEE816AF6230E810BD794C3268AE68EC6A3440ACE12270
S12355600D1026007D342010A3E110230074E6614F1F01FCC9653406ACE12305CC0000201D
S1235580043410A3E1FDC965FCC93D3410A3E1FDC93D8E53CDBD5B7A7AC938F6C948BD5F65
S12355A02A5CE763F7C8FEFEC9631D1F01340611A3E12D057DC9382608CC0000FDC9632031
S12355C0211F303410A3E1FDC963FCC9363410A3E1FDC936E6638E53E2BD5CC68EC8BFBDEA
S12355E05B7A32E81035E0594F55204741494E4544202520455850455249454E4345205011
S12356004F494E545300594F55204C4F5354202520455850455249454E434520504F494EF7
S12356205453003270F6C967BD5F2A5C4FED6A58495849ED6858495849584958495849A350
S123564068E36A58495849FDC902C602BD5F2AC1012631BEC902AFE38E55E7BD5F6FFCC92B
S123566002ED681F891D5959C40150ED66FCC93BE368FDC93BFCC939E967A966FDC9393216
S123568062160056BEC902AFE38E5606BD5F6FFCC939ED6EBEC93BAFE8103262EC6C10B337
S12356A0C904250A2613EC6E10B3C906240BCC0000FDC939FDC93B2021BEC902AF621F10C0
S12356C01F891D5959C40150EDE4EC6EA362FDC93BEC6CE261A2E4FDC9398EC8BFBD5B7A42
S12356E0BD53F832E810393440327C6F63E6634FEDE4584958495849CEC88030CB6F62CC4D
S1235700FFFFED816C62E662C10426F36C63E663C10426D9326435C03440327DC601BD0017
S12357206EBD686A7FC9817FC9826F62E6624FEDE4584958495849CEC88030CB5FCEFFFF7D
S1235740EF815CC10426F66C62E662C10426DDC67FF7C8FCC6FAF7C8A7F7C8A8C601F7C9A6
S123576080FFC9097FC8A07FC8A27FC8A37FC8A47FC8A57FC8A67FCACFF7C8F31F30F7C97D
S123578077F7C8F4C601F7C8F71F30F7C8F57FC8F87FC8F97FC8FA7FC8FB326335C00008C7
S12357A028281E94400810082A080000000414183C3C183C3C7C3C3E0000060060383C1831
S12357C07038787C787C423E1C484066621C781C781C3E42424242227E3820381000083C3B
S12357E04000023C183420080820100000000000001C1000000000000018081800600008AF
S1235800007C2868400020041C0800000008220842422840400842420808187E184444249C
S123582048444440408042080450405A5222442244200842425A2414042010082800080292
S12358407C1C3E42104C3800002410662E3C7C3E2C203C22428242423C1008080060000824
S123586000281C14320020043E3E003C001022081C0C483C7E103C3E0000600006189C3C7A
S123588078804470709C7E080470405A4A22782A681C0842245A1808182008080000003EB8
S12358A04220427E383424080828105A324242423218102242822C34082008043270000022
S12358C0007C0A2A4C0020041C0800000020220820427C02422042020008187E1800944224
S12358E04444444040844208444840424622402658020842246624082020040800000046C2
S123590062204640100424082830104222427C3E2004102624543408101008084C68000879
S123592000283C04320010082A0808000840141C7E3C083C3C403C3C0810060060105C42E1
S12359407838787C4078423E38447C42421C401C441C083C184242087E380238007E003A83
S12359605C1C3A3C101C2408182C1842223C40022038181A186C42083C1808180060A6626B
S12359803466ECE4970186CE970C4F9700BFC82C0C00D70197058E571EF6C82B86011F025D
S12359A06AE43088608618FEC82CC640D50D27FC970BCC00809701D700109F00E6C0E685C5
S12359C0D70AE6C02AF897008698970BCC02CCD70C12124A26FBECE4970186CE970C4F9772
S12359E000120C00D70197056AE43088608618FEC82CC640D50D27FC970BCC00809701D7B3
S1235A0000109F00E6C0E685D70AE6C02AF897008698970BCC02CCD70C12124A26FBECE4E6
S1235A20970186CE970C4F9700120C00D70197056AE43088608618FEC82CC640D50D27FC5A
S1235A40970BCC00809701D700109F00E6C0E685D70AE6C02AF897008698970BCC02CCD7B4
S1235A600C12124A26FBECE4970186CE970C4F9700120C00D70197056AE43088608618FEAE
S1235A80C82CC640D50D27FC970BCC00809701D700109F00E6C0E685D70AE6C02AF89700A6
S1235AA08698970BCC02CCD70C12124A26FBECE4970186CE970C4F9700120C00D70197053F
S1235AC03088608618FEC82CC640D50D27FC970BCC00809701D700109F00A6C0A686970AD0
S1235AE0A6C02AF8D700CC0098DD0A35E6CC0300DD000A00C6085A26FD0C00CC402097010C
S1235B008601D5002608000140D50027014FB7C81CCC0100DD000A00C6085A26FD0C00CCF8
S1235B20402097018601D5002608000140D50027014FB7C81B2700398620BEC8253001BF17
S1235B40C825950D27FCCC3075DD08CC00CCD70C970A9701CC03029700D700C601D700396F
S1235B6034403384AE64E684E7C03001E6842704C18026F4C680E7C435C034403384F6C9E2
S1235B8087C10327131D58491F013440AE890098BD5B607CC987326235C034403384E684F9
S1235BA0C120261230C43001E684E71F26F86F84E6C4C12027EE30C435C03460327EE7E48A
S1235BC0C1C7234CCB38E7E4108E32306F61CE32388E3234C14F232ECBB0E7E430C4C11391
S1235BE02306CBECE7E43002C109233ACBF6E7E43001BFC8A9E6E4CB30F7C8AB7FC8AC8E00
S1235C00C8A9326235E0C127233FCBD8E7E420CEC1632322CB9CE7E4108E31306F61CE3157
S1235C20388E313420AE8C203026C7E661C10126C18E202020BC108E2030C601E761CE2019
S1235C40388E2034E6E416FF8B30A4E6E416FF8EBD5BBA8EC8A97E5B9A34603279AF6230B7
S1235C6001AFE4301FE680E766108EC8BFC125272ECE00002002EE64E666E7C9C8BF3041F4
S1235C80AF643189C8BFEC6230CBE601E7661F30C30002AE62308BAFE4E666C12526D7AEE0
S1235CA06DE68427083001E7A0E68026FAEEE4E6C427083041E7A0E68026FAC680E7A48E14
S1235CC0C8BF326735E034603277AF62BD5BBA8EC8A9BD5B9AAF64AE623001AFE4301FE69E
S1235CE080E768108EC8BFC125272ECE00002002EE66E668E7C9C8BF3041AF663189C8BFE1
S1235D00EC6230CBE601E7681F30C30002AE62308BAFE4E668C12526D7AE64E68427083082
S1235D2001E7A0E68026FAEEE4E6C427083041E7A0E68026FAC680E7A48EC8BF326935E092
S1235D403460327C10AE6AE7628C9C3F10220140CE3030CC3230EDE48C4E1F1022012AEF40
S1235D60E48C270F230B3089D8F0ECE4C30100EDE46D62270AEEE4118330301027013D6FBB
S1235D80638C1F3F102300EC3089E0C0ECE4C30008EDE48C07CF230B3089F830ECE4C300CA
S1235DA002EDE48C03E7230B3089FC18ECE4C30001EDE46D62270AE663C101102701096F7B
S1235DC063EEE4EFA48C031F102300943089FCE0CE3830CC3A30EDE48C00C71022007AEFC2
S1235DE0E48C0063230A30889CECE4C30100EDE46D62270AE663C101102700DE6F638C0068
S1235E004F23453088B0ECE4C30008EDE48C0013230A3088ECECE4C30002EDE48C00092365
S1235E20093016ECE4C30001EDE46D622708E663C10110270074EEE4EF221F10CB30E724DE
S1235E406F2530A4326435E08C002723C03088D8ECE4C30004EDE420B43089FF3816FF8143
S1235E608C018F233A3089FE70CE3430CC3630EDE416FF648C0F9F1023FF183089F060EC57
S1235E80E4C30004EDE416FF0A3089B1E016FED1308963C0CE3430CC3630EDE416FEB9CE88
S1235EA03030CC3230EDE416FF2EEEE4118320301026FF82CC2020EDE416FF7ACC2030ED5A
S1235EC0E4C601E76316FEB9EEE4118320301026FEEDCC2020EDE416FEE7EEE41183303087
S1235EE01026FF18CC2030EDE416FF123440CEC8ADEFE3C601BD5D40326235C0327EF6CA9A
S1235F00785CE7E4F7CA78F6CA7BF8CA79E761E6E4E861E761F7CA79FBCA7AF7CA7A54FB89
S1235F20CA7BE861F7CA7B326239327DE761273CF6CA785CE7E4F7CA78F6CA7BF8CA79E777
S1235F4062E6E4E862E762F7CA79FBCA7AF7CA7A54FBCA7BE862E7E4F7CA7BE6614F340615
S1235F60E6624F1F01BD72D132621F103263393460327BAFE4108EC8AD3420C601AE6DBDFB
S1235F805D4030A4BD5B9A10AE62E6A0E7663262CEC8BFC125272E108E0000200310AE62E2
S1235FA0E664E7A9C8BF3021AF623389C8BFECE430ABE601E7641F20C30002AEE4318BE6C2
S1235FC064C12526D8F6C8AD27098EC8AEE7C0E68026FAE6A427083021E7C0E68026FAC6AC
S1235FE080E7C4326535E03460327910AE6D10AF62EE6FEF643384108C7735102206311013
S1236000270622CC3030EDE48E313010AE62108C3B9A1022032710270318AEE48C30301074
S123602026032B108E203010AFE4C601E766AE628C2FAF10230322EC64C3F800ED64EC62E7
S1236040C95089D0ED62ECE4C30008EDE4AE628C0BEB102203328C0BEB1027067CAE628C3F
S123606005F5102203418C05F510270693E666C101102703506F66ECE4EDC4AE628C04C404
S12360801022035D1027034FEC6210830262102305DFEC64C3A600ED64EC62C99D89FDED54
S12360A0628E3430108E363010AFE4EC62108301311023034FEC64C3D300ED64EC62C9CE2D
S12360C089FEED62AE628C00981023034AEC64C36980ED64EC62C96789FFED62ECE4C301FC
S12360E000EDE4E666C101102705C06F66EC621083007A1022033F10270330AE628C003DDA
S123610010230559EC64C3F700ED64EC62C9C289FFED62ECE4C30004EDE4AE628C001E10AD
S1236120230332EC64C37B80ED64EC62C9E189FFED62ECE4C30002EDE4AE628C000F102292
S123614004B3102704A5E666C101102704C56F66ECE4ED42AE628C000C1022031610270395
S123616008EC6210830006102304DFEC64C3E580ED64EC62C9F989FFED628E3430108E36A0
S12361803010AFE4EC621083000310230308EC64C3F2C0ED64EC62C9FC89FFED62AE628C6A
S12361A0000110230303EC64C37960ED64EC62C9FE89FFED62ECE4C30100EDE4E666C10105
S12361C0102704D46F66EC6210830001102202F8102702E9AE62102704E4EC64C363C0ED55
S12361E064EC62C9FF89FFED62ECE4C30004EDE4AE62102702EEEC64C3B1E0ED64EC62C99F
S1236200FF89FFED62ECE4C30002EDE4AE62102603A910AE64108C270F1022039EE666C178
S123622001102703B46F66ECE4ED44AE62260B10AE64108C1F3F102304E2EC64C3E0C0ED7F
S123624064EC62C9FF89FFED628E3830108E3A3010AFE4EC621026035010AE64108C07CFDD
S123626010220345AFE4AE621026030C10AE64108C03E710220301E666C101102703176F0C
S123628066EC622609AE648C031F102304A1EC64C3FCE0ED64EC62C9FF89FFED62ECE4C3BF
S12362A00008EDE4AE62102602B510AE64108C00C7102202AAAE621026027110AE64108C2A
S12362C0006310220266E666C1011027027C6F66ECE4ED46AE62260B10AE64108C004F10C4
S12362E023042AEC64C3FFB0ED64EC62C9FF89FFED62CC38308E3A3010AE621026021B109A
S1236300AE64108C0013102202101F0110AE62102601DFEC6410830009102201D5E666C11D
S123632001102701E8E6653AAF486F4A30C4326735E010AE64108CC9FF1023FCDDEC64C3BC
S12363403600ED64EC62C96589C4ED62AFE46F66AE628C2FAF1022FCDE8C2FAF1027039375
S1236360AE628C17D71023031BEC64C37C00ED64EC62C92889E8ED62ECE4C30004EDE4AE49
S1236380628C0BEB1023FCCEEC64C33E00ED64EC62C91489F4ED62ECE4C30002EDE4AE6209
S12363A08C05F51023FCBFEC64C31F00ED64EC62C90A89FAED62ECE4C30001EDE4E666C17D
S12363C0011026FCB0AEE48C20301026FCA7108E20201F2016FCA2EC641083B3FF1023FCFA
S12363E0A7EC64C34C00ED64EC62C93B89FBED628E3830108E3A3010AFE4EC621083013169
S12364001022FCB110830131102702DAAFE4AE628C00981022FCB68C00981026FCC5EC64AB
S12364201083967F1023FCBB16FCA210AE64108C11FF1023FCC5EC64C3EE00ED64EC62C9E7
S12364408589FFED62ECE4C30008EDE4AE628C001E1022FCCE8C001E1026FCDDEC6410831E
S1236460847F1023FCD316FCBAEC64108334FF1023FCEEEC64C3CB00ED64EC62C9F389FF53
S1236480ED628E3830108E3A3010AFE4EC62108300031022FCF8108300031027022EAFE46E
S12364A0AE628C00011022FCFD8C00011026FD0CEC641083869F1023FD0216FCE910AE64ED
S12364C0108C387F1023FD0CEC64C3C780ED64EC62C9FE89FFED62ECE4C30008EDE4AE6216
S12364E01026FD1210AE64108C4E1F1023FD1D16FD04EC64C3FFF6ED64EC62C9FF89FFEDE0
S12365006230890100E666C1011026FE188C30301026FE118E203016FE0BEC64C3FFECEDE8
S123652064EC62C9FF89FFED6216FDE0EC64C3FF9CED64EC62C9FF89FFED62ECE4C3000193
S1236540EDE4E666C1011026FD84AEE48C20301026FD7B108E202010AFE41F2016FD73EC53
S123656064C3FF38ED64EC62C9FF89FFED62ECE4C30002EDE416FD3DEC64C3FC18ED64EC61
S123658062C9FF89FFED62ECE4C30100EDE4E666C1011026FCE9AEE48C30301026FCE010C8
S12365A08E203010AFE416FCD8EC64C3F830ED64EC62C9FF89FFED6216FCABEC64C3D8F05B
S12365C0ED64EC62C9FF89FFED62ECE4C30001EDE4E666C1011026FC4CAEE48C20301026E4
S12365E0FC43108E20201F2016FC3EEC641083423F1023FB51EC64C3BDC0ED64EC62C9F020
S123660089FFED62ECE4C30001EDE4E666C1011026FB3BAEE48C20301026FB32108E202011
S12366201F2016FB2D10AE64108C93FF1023F9D3EC64C36C00ED64EC62C9CA8988ED628EEB
S12366403230AFE48E333016F9C1108300061027010B8E3030CC3230EDE416FE2F8C003DAB
S12366601026FDE8EC64108308FF1023FDDE16FA9310830262102700D68E3030CC3230ED53
S1236680E416FD768C17D71026F9C2EC64108383FF1023F9B816FCD1AEE48C30301026FB43
S12366A023108E203010AFE416FB1BAEE48C30301026FA37108E203010AFE416FA2F10AE83
S12366C064108C9C3F1023FE1516FB0EEC6410830D3F1022FAB816FDC5EC641083C1FF10D8
S12366E023F97A16FCA2EC6410832CFF1022F9C516FD19EC64108307FF1023FC6316F93761
S1236700EC641083E0FF1023F96316FC9A108C00272258CC30308E323016FBDC108C0F9FE8
S123672022618E3030108E323010AFE416FB248C018F1023FB6EEC64C3FE70ED64EC62C96B
S1236740FF89FFED62ECE4C30004EDE416FB5510AE64108C59FF1022F93816FF1C10AE64C5
S1236760108C1A7F1022FA0316FEE7EC64C3FFD8ED64EC62C9FF89FFED62CC34308E36306A
S123678016FB75EC64C3F060ED64EC62C9FF89FFED628E3430108E363010AFE416FAB48EE3
S12367A0C8B37E5FE7327CAE66AFE4AE68AF628EC8B3BD5FE732648EC8B37E5B9A34603236
S12367C077AF64AE6FAFE4ECE811ED628EC8B3BD5FE78EC8B3BD5B9AEE64E6C0E7683264A3
S12367E0108EC8BFC125272CCE00002002EE62E664E7C9C8BF3041AF623189C8BFECE430B3
S1236800CBE601E7641F30C30002AEE4338BE664C12526D9F6C8B327098EC8B4E7A0E6804C
S123682026FAE6C427083041E7A0E68026FAC680E7A4326535E0327CF6CA78E7E4C681E088
S1236840E4E761E6E45CE762F7CA78C649E0E4E861E862E763F7CA79E0E4CBD3F7CA7A5485
S1236860EB61E863F7CA7B326439C60CF7CA78CB38F7CA79C60CF7CA7AC638F7CA7B7FC99B
S1236880877FC986C690F7C9853934603277AF62BD5BBAAF64AE623001AFE4301FE680E728
S12368A068108EC8BFC125272ECE00002002EE66E668E7C9C8BF3041AF663189C8BFEC622E
S12368C030CBE601E7681F30C30002AE62308BAFE4E668C12526D7AE64E68427083001E71D
S12368E0A0E68026FAEEE4E6C427083041E7A0E68026FAC680E7A48EC8BF326935E034601B
S12369003277AF62BD6972AF64AE623001AFE4301FE680E768108EC8BFC125272ECE000008
S12369202002EE66E668E7C9C8BF3041AF663189C8BFEC6230CBE601E7681F30C30002AE50
S123694062308BAFE4E668C12526D7AE64E68427083001E7A0E68026FAEEE4E6C42708308E
S123696041E7A0E68026FAC680E7A48EC8BF326935E0327DE7E4102D008F6F61E6E4C1632B
S12369802F57CB9CE7E48E31306F62C1132F06CBECE7E43002C1092F55CBF6E7E43001BFF4
S12369A0C8ADE6E4CB30F7C8AF7FC8B08EC8ADBD5B9AF6C8B0F7C8B1F6C8AFF7C8B0F6C807
S12369C0AEF7C8AFF6C8ADF7C8AE6D612630C62BF7C8AD8EC8AD326339C14F2F35CBB0E797
S12369E0E48E2038C601E762E6E4C1092EAB8C203026ACE662C10126A68E202020A1C62D46
S1236A00F7C8AD8EC8AD32633960E4C601E76116FF6A8E2030C601E762E6E4C127102FFF85
S1236A206ACBD8E7E48E2034C601E762E6E416FF5A3420108EC8AD3420C601BD5D403262DF
S1236A4030A435207E5B9A34603277AF643001AF62301FE680E768108EC8BFC125272ECED2
S1236A6000002002EE66E668E7C9C8BF3041AF663189C8BFEC6430CBE601E7681F30C300BD
